:020000040800F2
:100000000008002001C0000851D4000851D40008A5
:1000100051D4000851D4000851D4000851D400082C
:1000200051D4000851D4000851D4000841E300081D
:1000300051D4000851D4000851D4000851F70008E9
:1000400051D4000851D4000851D4000851D40008FC
:1000500051D4000851D4000851D4000851D40008EC
:1000600051D4000851D4000851D40008D1F100083F
:1000700001F2000831F2000861F2000891F2000874
:10008000C1F20008F1F20008A11B0108B1F8000854
:10009000F1F8000861F90008D1F90008C11B010856
:1000A00051D4000851D4000851D4000851D400089C
:1000B00051D40008E11B01088111010851D4000846
:1000C00051D40008210001082101010851D4000881
:1000D00051D4000851D4000851D40008511501082A
:1000E00051D4000851D4000851D4000851D400085C
:1000F00051D4000851D40008111C010821F3000854
:1001000051D4000851D4000851D4000851D400083B
:1001100051D4000851D4000851D4000851D400082B
:1001200051F3000881F30008B1F30008E1F300087F
:1001300011F4000851D4000851D4000851D400082B
:1001400051D4000851D4000851D40008610F0108AF
:1001500041F4000871F40008A1F4000871150108C9
:1001600051D4000851D4000851D4000851D40008DB
:1001700051D4000851D4000851D4000851D40008CB
:1001800051D4000851D4000851D4000851D40008BB
:1001900051D4000851D4000851D4000851D40008AB
:1001A00051D4000851D4000851D4000851D400089B
:1001B00051D4000851D4000851D4000851D400088B
:10C0000072B6334880F3098840F20000CCF2000099
:10C010004EF63471CEF200010860BFF34F8FBFF3CC
:10C020006F8F40F20000C0F2F0004EF68851CEF261
:10C0300000010860BFF34F8FBFF36F8F4FF0000018
:10C04000E1EE100A4EF63C71CEF2000108600620C7
:10C0500080F31488BFF36F8F01F0E2F905F0D0FB95
:10C060004FF055301B491C4A91423CBF41F8040B2C
:10C07000FAE71A49164A91423CBF41F8040BFAE725
:10C080001749184A184B9A423EBF51F8040B42F820
:10C09000040BF8E700201549154A91423CBF41F8CE
:10C0A000040BFAE701F0C4F9124C134DAC4203DA69
:10C0B00054F8041B8847F9E705F05AFC0F4C104D63
:10C0C000AC4203DA54F8041B8847F9E701F0B8B929
:10C0D00000100020000000200008002000080020C0
:10C0E0005820030800100020481A0020481A002099
:10C0F000EC1E012000C0000800C0000800C00008BD
:10C1000000C0000800000000000000000000000067
:10C110002DE9F04F2DED108AC1F80CD0D0F80CD0DD
:10C12000BDEC108ABDE8F08F002383F31188284608
:10C13000A047002001F08CFC01F0BAFB00DFFEE715
:10C1400081F0004102E000BF83F0004330B54FEAC8
:10C1500041044FEA430594EA050F08BF90EA020F35
:10C160001FBF54EA000C55EA020C7FEA645C7FEAC8
:10C17000655C00F0E2804FEA5454D4EB5555B8BFEB
:10C180006D420CDD2C4480EA020281EA030382EA5C
:10C19000000083EA010180EA020281EA0303362DEE
:10C1A00088BF30BD11F0004F4FEA01314FF4801CC1
:10C1B0004CEA113102D0404261EB410113F0004FD3
:10C1C0004FEA03334CEA133302D0524263EB43038A
:10C1D00094EA050F00F0A780A4F10104D5F1200E28
:10C1E0000DDB02FA0EFC22FA05F2801841F1000183
:10C1F00003FA0EF2801843FA05F359410EE0A5F157
:10C2000020050EF1200E012A03FA0EFC28BF4CF087
:10C21000020C43FA05F3C01851EBE37101F000453D
:10C2200007D54FF0000EDCF1000C7EEB00006EEB4A
:10C230000101B1F5801F1BD3B1F5001F0CD34908D4
:10C240005FEA30004FEA3C0C04F101044FEA44522B
:10C2500012F5800F80F09A80BCF1004F08BF5FEAB2
:10C26000500C50F1000041EB045141EA050130BD92
:10C270005FEA4C0C404141EB010111F4801FA4F135
:10C280000104E9D191F0000F04BF01460020B1FA8A
:10C2900081F308BF2033A3F10B03B3F120020CDAC2
:10C2A0000C3208DD02F1140CC2F10C0201FA0CF0A0
:10C2B00021FA02F10CE002F11402D8BFC2F1200C05
:10C2C00001FA02F120FA0CFCDCBF41EA0C019040BB
:10C2D000E41AA2BF01EB0451294330BD6FEA040404
:10C2E0001F3C1CDA0C340EDC04F11404C4F12002EF
:10C2F00020FA04F001FA02F340EA030021FA04F301
:10C3000045EA030130BDC4F10C04C4F1200220FA57
:10C3100002F001FA04F340EA0300294630BD21FA95
:10C3200004F0294630BD94F0000F83F4801306BF5B
:10C3300081F480110134013D4EE77FEA645C18BF4F
:10C340007FEA655C29D094EA050F08BF90EA020FE6
:10C3500005D054EA000C04BF1946104630BD91EADE
:10C36000030F1EBF0021002030BD5FEA545C05D1E1
:10C370004000494128BF41F0004130BD14F5800420
:10C380003CBF01F5801130BD01F0004545F0FE4194
:10C3900041F470014FF0000030BD7FEA645C1ABFC9
:10C3A000194610467FEA655C1CBF0B46024650EA00
:10C3B000013406BF52EA033591EA030F41F400212C
:10C3C00030BD00BF90F0000F04BF0021704730B5B2
:10C3D0004FF4806404F132044FF000054FF0000187
:10C3E00050E700BF90F0000F04BF0021704730B548
:10C3F0004FF4806404F1320410F0004548BF40421D
:10C400004FF000013EE700BF42004FEAE2014FEA71
:10C4100031014FEA02701FBF12F07F4393F07F4F4C
:10C4200081F06051704792F0000F14BF93F07F4F7E
:10C43000704730B54FF4607401F0004521F00041C1
:10C4400020E700BF50EA010208BF704730B54FF047
:10C4500000050AE050EA010208BF704730B511F04C
:10C46000004502D5404261EB41014FF4806404F184
:10C4700032045FEA915C3FF4DCAE4FF003025FEA06
:10C48000DC0C18BF03325FEADC0C18BF033202EB8E
:10C49000DC02C2F1200300FA03FC20FA02F001FAE8
:10C4A00003FE40EA0E0021FA02F11444C1E600BF87
:10C4B00070B54FF0FF0C4CF4E06C1CEA11541DBF3A
:10C4C0001CEA135594EA0C0F95EA0C0F00F0DEF805
:10C4D0002C4481EA030621EA4C5123EA4C5350EAEA
:10C4E000013518BF52EA033541F4801143F480133B
:10C4F00038D0A0FB02CE4FF00005E1FB02E506F0CC
:10C500000042E0FB03E54FF00006E1FB03569CF020
:10C51000000F18BF4EF0010EA4F1FF04B6F5007F26
:10C5200064F5407404D25FEA4E0E6D4146EB060698
:10C5300042EAC62141EA55514FEAC52040EA5E5021
:10C540004FEACE2EB4F1FD0C88BFBCF5E06F1ED8CB
:10C55000BEF1004F08BF5FEA500E50F1000041EB02
:10C56000045170BD06F0004646EA010140EA0200AF
:10C5700081EA0301B4EB5C04C2BFD4EB0C0541EAD1
:10C58000045170BD41F480114FF0000E013C00F3E6
:10C59000AB8014F1360FDEBF002001F0004170BD0A
:10C5A000C4F10004203C35DA0C341BDC04F1140423
:10C5B000C4F1200500FA05F320FA04F001FA05F2AF
:10C5C00040EA020001F0004221F0004110EBD3707C
:10C5D00021FA04F642EB06015EEA430E08BF20EAA8
:10C5E000D37070BDC4F10C04C4F1200500FA04F34B
:10C5F00020FA05F001FA04F240EA020001F00041DD
:10C6000010EBD37041F100015EEA430E08BF20EA4F
:10C61000D37070BDC4F1200500FA05F24EEA020E97
:10C6200020FA04F301FA05F243EA020321FA04F0C6
:10C6300001F0004121FA04F220EA020000EBD3707D
:10C640005EEA430E08BF20EAD37070BD94F0000F7D
:10C650000FD101F00046400041EB010111F4801FB1
:10C6600008BF013CF7D041EA060195F0000F18BF62
:10C67000704703F00046520043EB030313F4801F9E
:10C6800008BF013DF7D043EA0603704794EA0C0F58
:10C690000CEA135518BF95EA0C0F0CD050EA41066E
:10C6A00018BF52EA4306D1D181EA030101F00041EB
:10C6B0004FF0000070BD50EA410606BF1046194613
:10C6C00052EA430619D094EA0C0F02D150EA01361F
:10C6D00013D195EA0C0F05D152EA03361CBF104660
:10C6E00019460AD181EA030101F0004141F0FE41FF
:10C6F00041F470014FF0000070BD41F0FE4141F483
:10C70000780170BD70B54FF0FF0C4CF4E06C1CEA82
:10C7100011541DBF1CEA135594EA0C0F95EA0C0F37
:10C7200000F0A7F8A4EB050481EA030E52EA0335F2
:10C730004FEA013100F088804FEA03334FF0805513
:10C7400045EA131343EA12634FEA022245EA111540
:10C7500045EA10654FEA00260EF000419D4208BFF1
:10C76000964244F1FD0404F5407402D25B084FEA9E
:10C770003202B61A65EB03055B084FEA32024FF44A
:10C7800080104FF4002CB6EB020E75EB030E22BFA7
:10C79000B61A754640EA0C005B084FEA3202B6EB67
:10C7A000020E75EB030E22BFB61A754640EA5C0016
:10C7B0005B084FEA3202B6EB020E75EB030E22BFA6
:10C7C000B61A754640EA9C005B084FEA3202B6EBA7
:10C7D000020E75EB030E22BFB61A754640EADC0066
:10C7E00055EA060E18D04FEA051545EA16754FEAC8
:10C7F00006164FEAC30343EA52734FEAC2025FEAE6
:10C800001C1CC0D111F4801F0BD141EA00014FF074
:10C8100000004FF0004CB6E711F4801F04BF014345
:10C820000020B4F1FD0C88BFBCF5E06F3FF6AFAE61
:10C83000B5EB030C04BFB6EB020C5FEA500C50F1F1
:10C84000000041EB045170BD0EF0004E4EEA113174
:10C8500014EB5C04C2BFD4EB0C0541EA045170BD7B
:10C8600041F480114FF0000E013C90E645EA060EBF
:10C870008DE60CEA135594EA0C0F08BF95EA0C0FED
:10C880003FF43BAF94EA0C0F0AD150EA01347FF435
:10C8900034AF95EA0C0F7FF425AF104619462CE70C
:10C8A00095EA0C0F06D152EA03353FF4FDAE10466F
:10C8B000194622E750EA410618BF52EA43067FF4C0
:10C8C000C5AE50EA41047FF40DAF52EA43057FF450
:10C8D000EBAE12E7000000000000000000000000C6
:10C8E0004FF0FF3C06E000BF4FF0010C02E000BF3C
:10C8F0004FF0010C4DF804CD4FEA410C7FEA6C5C1F
:10C900004FEA430C18BF7FEA6C5C1BD001B050EAC1
:10C91000410C0CBF52EA430C91EA030F02BF90EAAC
:10C92000020F0020704710F1000F91EA030F58BF6B
:10C93000994208BF90422CBFD8176FEAE37040F0CD
:10C94000010070474FEA410C7FEA6C5C02D150EA6B
:10C95000013C07D14FEA430C7FEA6C5CD6D152EA26
:10C96000033CD3D05DF8040B704700BF84461046EB
:10C9700062468C461946634600E000BF01B5FFF7EA
:10C98000B7FF002848BF10F1000F01BD4DF808EDBA
:10C99000FFF7F4FF0CBF012000205DF808FB00BF8B
:10C9A0004DF808EDFFF7EAFF34BF012000205DF8E5
:10C9B00008FB00BF4DF808EDFFF7E0FF94BF012032
:10C9C00000205DF808FB00BF4DF808EDFFF7CEFF33
:10C9D00094BF012000205DF808FB00BF4DF808ED72
:10C9E000FFF7C4FF34BF012000205DF808FB00BF43
:10C9F0004FEA410C7FEA6C5C02D150EA013C0AD15B
:10CA00004FEA430C7FEA6C5C02D152EA033C02D14C
:10CA10004FF0000070474FF0010070470000000029
:10CA20004FEA410212F5001215D211D56FF4787356
:10CA3000B3EB625212D94FEAC12343F0004343EAF9
:10CA4000505311F0004F23FA02F018BF40427047D4
:10CA50004FF00000704750EA013005D111F000405E
:10CA600008BF6FF0004070474FF00000704700BFF4
:10CA70004FEA4102B2F1E04324BFB3F5001CDCF100
:10CA8000FE5C0DD901F0004C4FEAC0024CEA507038
:10CA9000B2F1004F40EB830008BF20F00100704767
:10CAA00011F0804F21D113F13872BCBF01F000406A
:10CAB000704741F480114FEA5252C2F11802C2F19C
:10CAC000200C10FA0CF320FA02F018BF40F001001D
:10CAD0004FEAC1234FEAD32303FA0CFC40EA0C00CF
:10CAE00023FA02F34FEA4303CCE77FEA625307D10C
:10CAF00050EA01331EBF4FF0FE4040F44000704743
:10CB000001F0004040F0FE4040F40000704700BFDC
:10CB1000844641EA000313F003036DD1403A41D348
:10CB200051F8043B40F8043B51F8043B40F8043B07
:10CB300051F8043B40F8043B51F8043B40F8043BF7
:10CB400051F8043B40F8043B51F8043B40F8043BE7
:10CB500051F8043B40F8043B51F8043B40F8043BD7
:10CB600051F8043B40F8043B51F8043B40F8043BC7
:10CB700051F8043B40F8043B51F8043B40F8043BB7
:10CB800051F8043B40F8043B51F8043B40F8043BA7
:10CB900051F8043B40F8043B51F8043B40F8043B97
:10CBA000403ABDD2303211D351F8043B40F8043B37
:10CBB00051F8043B40F8043B51F8043B40F8043B77
:10CBC00051F8043B40F8043B103AEDD20C3205D347
:10CBD00051F8043B40F8043B043AF9D2043208D03F
:10CBE000D2071CBF11F8013B00F8013B01D30B88B1
:10CBF00003806046704700BF082A13D38B078DD08F
:10CC000010F003038AD0C3F10403D21ADB071CBF60
:10CC100011F8013B00F8013B80D331F8023B20F8CA
:10CC2000023B7BE7043AD9D3013A11F8013B00F803
:10CC3000013BF9D20B7803704B7843708B7883708B
:10CC40006046704700000000000000000000000087
:10CC5000A2EB0300704700BF02780B78012A28BFBF
:10CC60009A42F5D16DE9044540EA0104CDE9026735
:10CC70006FF0000C4FEA447212B380EA010414F022
:10CC8000070F6AD100F0070420F0070004F0030545
:10CC900021F007014FEAC505F0E8042314F0040F62
:10CCA000F1E804670CFA05F462EA040266EA040695
:10CCB0000AD063EA0403624667EA0407664603E0B3
:10CCC000F0E80423F1E8046782FA4CF582EA0604EE
:10CCD000A4FA8CF46CBB83FA4CF583EA0705A5FA39
:10CCE0008CF595B950E9022351E9026782FA4CF5B7
:10CCF00082EA0604A4FA8CF483FA4CF583EA070569
:10CD0000A5FA8CF52543DBD09CB92DBAB5FA85F48C
:10CD100024F0070427FA04F1DDE9026723FA04F39B
:10CD200003F0FF0001F0FF01FDE80445A0EB010066
:10CD3000704724BAB4FA84F424F0070426FA04F104
:10CD4000DDE9026722FA04F202F0FF0001F0FF01C0
:10CD5000FDE80445A0EB0100704714F0030F3CD13F
:10CD600010F0030428D150F8082B51F8083B82FA40
:10CD70004CF582EA0305A5FA8CF55DB950F8042C50
:10CD800051F8043C82FA4CF582EA0305A5FA8CF5C9
:10CD9000002DE8D02DBAB5FA85F424F0070423FA63
:10CDA00004F122FA04F202F0FF0001F0FF01FDE8B5
:10CDB0000445A0EB010070474FEAC40420F00300D3
:10CDC00050F8082B21F0030151F8083B0CFA04F449
:10CDD00062EA040263EA0403C9E710F003041AD00C
:10CDE000A1EB040120F00300E40750F8042B06D067
:10CDF0000FD28B785FFAA2F4E41A06D12BB1CB786C
:10CE00005FFAB2F4E41A00D11BB920465DF8104B6A
:10CE1000704701F1040150F8042BCC0721F0030105
:10CE200051F8043B48D824D222F07F4482FA4CF5D2
:10CE300094EA1325A5FA8CF50AD165B951F8043B9B
:10CE400084EA0204B4EB036F0ED150F8042BEBE735
:10CE50004FEA132355E035F07F454DD10878FDE8C2
:10CE60000445C0F1000070474FEA126203F0FF036F
:10CE700047E002EA1C4482FA4CF594EA1345A5FA0D
:10CE80008CF50AD165B951F8043B84EA0204B4EB8D
:10CE9000034F0CD150F8042BEBE74FEA134330E07B
:10CEA00015EA1C4528D10B884FEA124229E04FEAC7
:10CEB000124203EA1C4324E002F0FF0482FA4CF51C
:10CEC00094EA1365A5FA8CF50AD165B951F8043BCB
:10CED00084EA0204B4EB032F09D150F8042BEBE7EA
:10CEE0004FEA13630DE015F0FF0F05D10B684FEA11
:10CEF000122223F07F4304E04FF00000FDE80445D8
:10CF0000704712BA1BBA82FA4CF482EA0304A4FAFC
:10CF10008CF5B5FA85F402FA04F203FA04F34FEA49
:10CF20001260FDE80445A0EB1360704700000000AC
:10CF300090F800F06DE9024520F007016FF0000C59
:10CF400010F0070491F820F040F049804FF0000401
:10CF50006FF00700D1E9002391F840F000F10800DC
:10CF600082FA4CF2A4FA8CF283FA4CF3A2FA8CF314
:10CF70004BBBD1E9022382FA4CF200F10800A4FA7B
:10CF80008CF283FA4CF3A2FA8CF3E3B9D1E90423CF
:10CF900082FA4CF200F10800A4FA8CF283FA4CF306
:10CFA000A2FA8CF37BB9D1E9062301F1200182FAC0
:10CFB0004CF200F10800A4FA8CF283FA4CF3A2FAC6
:10CFC0008CF3002BC6D0002A04BF04301A4612BAD4
:10CFD000B2FA82F2FDE8024500EBD2007047D1E9D7
:10CFE000002304F00305C4F100004FEAC50514F066
:10CFF000040F91F840F00CFA05F562EA05021CBF37
:10D0000063EA050362464FF00004A9E70000000050
:10D0100001F0FF01102A2BDB10F0070F08D010F8E9
:10D02000013B013A8B422DD010F0070F42B3F6D1ED
:10D03000F0B441EA012141EA014122F007047FF006
:10D0400000070023F0E80256083C85EA010586EA5D
:10D05000010685FA47F5A3FA87F586FA47F6A5FA99
:10D0600087F68EB9EED1F0BC01F0FF0102F00702A5
:10D0700032B110F8013B013A83EA010313B1F8D150
:10D080000020704701387047002D06BF3546033831
:10D09000073815F0010F07D1013015F4807F02BF6A
:10D0A000013015F4C03F0130F0BC0138704700BFBB
:10D0B0004A0011D212F5001211D20DD56FF4787317
:10D0C000B3EB62520ED44FEAC12343F0004343EA6C
:10D0D000505323FA02F070474FF00000704750EAB7
:10D0E000013002D14FF0FF3070474FF00000704721
:10D0F00053B94AB9002908BF00281CBF4FF0FF31BF
:10D100004FF0FF3000F084B9ADF1080C6DE904CEAA
:10D1100000F006F8DDF804E0DDE9022304B0704712
:10D120002DE9F0478C460E460446089D002B50D151
:10D130008A4217466CD9B2FA82FEBEF1000F0BD0BC
:10D14000CEF1200420FA04F401FA0EF644EA060CAB
:10D1500002FA0EF700FA0EF44FEA1749220CBCFB54
:10D16000F9F01FFA87F809FB10C642EA064600FBF1
:10D1700008F3B34209D9F61900F1FF3280F0228199
:10D18000B34240F21F8102383E44F61AA2B2B6FB07
:10D19000F9F309FB136642EA064403FB08F8A045CD
:10D1A00009D9E41903F1FF3280F00A81A04540F269
:10D1B0000781023B3C44C8EB040443EA00400021E1
:10D1C000002D62D024FA0EF400232C606B60BDE8C1
:10D1D000F0878B4207D9002D55D0002185E841000A
:10D1E0000846BDE8F087B3FA83F1002940F090804B
:10D1F000B34202D3824200F2F880841A66EB03063F
:10D200000120B446002D40D085E81010BDE8F0871D
:10D2100012B90127B7FBF2F7B7FA87FEBEF1000F8C
:10D2200035D1F31B4FEA17481FFA87FC0121B3FBE6
:10D23000F8F0220C08FB103642EA06460CFB00F31D
:10D24000B34207D9F61900F1FF3202D2B34200F21D
:10D25000CE801046F61AA2B2B6FBF8F308FB1366AE
:10D2600042EA06440CFB03FCA44507D9E41903F188
:10D27000FF3202D2A44500F2B5801346CCEB040481
:10D2800043EA00409CE729462846BDE8F087CEF1F6
:10D29000200106FA0EF307FA0EF720FA01F94FEA19
:10D2A0001748CE4049EA0309B6FBF8FA4FEA194499
:10D2B00008FB1A661FFA87FC44EA06430AFB0CF2D5
:10D2C0009A4200FA0EF40AD9DB190AF1FF3180F014
:10D2D00087809A4240F28480AAF1020A3B449B1A5A
:10D2E0001FFA89F9B3FBF8F108FB113349EA03434C
:10D2F00001FB0CF69E4207D9DB1901F1FF326BD21C
:10D300009E4269D902393B449B1B41EA0A418EE7A0
:10D31000C1F1200E22FA0EF48B40234320FA0EF7BF
:10D3200006FA01F44FEA134C26FA0EF63C43B6FB1C
:10D33000FCF9270C0CFB19661FFA83F847EA06462E
:10D3400009FB08F7B74202FA01F200FA01FA08D91C
:10D35000F61809F1FF3041D2B7423FD9A9F10209CD
:10D360001E44F61BA0B2B6FBFCF40CFB146640EAAC
:10D37000064704FB08F8B84507D9FF1804F1FF3049
:10D3800028D2B84526D9023C1F4444EA0940C8EBDC
:10D390000707A0FB02894F4544464E4614D329D0C7
:10D3A00065B3BAEB040367EB060707FA0EFECB4042
:10D3B000CF404EEA030385E888000021BDE8F087EE
:10D3C0001346F8E61046E0E6B8EB020469EB030604
:10D3D0000138E5E70446D8E7114695E78146C0E7FE
:10D3E0008A467CE7023B3C4448E708460AE70238A5
:10D3F0003E442FE7C245E7D33E46D1E72946BDE884
:10D40000F08700BF000000000000000000000000E6
:10D41000704700BF00000000000000000000000096
:10D42000704700BF00000000000000000000000086
:10D43000704700BF00000000000000000000000076
:10D44000FEE700BF00000000000000000000000038
:10D45000FEE700BF00000000000000000000000028
:10D46000FEE700BF00000000000000000000000018
:10D47000204B214A2148F0B500249C60DF68204EF3
:10D48000204D4FF6FF0139400A43DA60F26842F05E
:10D490008072F2600268202142F0010210260260D0
:10D4A00083B0DE7783F8221000F002F900F080F8F4
:10D4B00000F066FB00F064FE00F0AAFE2846402162
:10D4C00000F006FAA5F1300301229861027784F397
:10D4D000118862B69B690C49996105F1500000946E
:10D4E0000A4B4FF4EC7100F04BFA094B836103B027
:10D4F000F0BD00BF00ED00E00003FA05001000E001
:10D50000F0ED00E0781A002070F8020861D40008FD
:10D5100060F80208000000000000000000000000A9
:10D5200072B6014BD862FEE7481A002000000000E6
:10D53000F8B5134DAA69D37F0BB1013BD377116ABC
:10D54000EB69104E01311162AA6AB34202F1010285
:10D55000AA6213D09C68013C9C607CB920271A68A1
:10D56000D968DC605660EA6184F3118818698847DD
:10D5700087F31188EB699A68002AF0D0F8BD00BFE4
:10D58000481A0020641A002000000000000000007B
:10D59000034A516853685B1A8342FBD3704700BF4C
:10D5A000001000E00000000000000000000000008B
:10D5B000054B4FF0FF3003F11C02002158629962C5
:10D5C000DA611A62704700BF481A002000000000AC
:10D5D00070B40D4EF469A5680361A942C26004D914
:10D5E0002468491BA5688D42FAD3636843600460D0
:10D5F000186060608160A3684FF0FF32591AA16023
:10D60000726270BC704700BF481A00200000000022
:10D6100003688268416830B49D68064C2A449A6069
:10D620000B60056800224FF0FF336960C2606362DF
:10D6300030BC7047481A00200000000000000000C5
:10D6400010B4202383F31188037F072B0ED8DFE863
:10D6500003F0270D0D2308040D08426A9368013377
:10D66000936090E80C001A60026853604FF0FF343A
:10D67000002281680D4B446202771B689A688A42D7
:10D68000FBD25A684260036000211060586081F349
:10D6900011885DF8044B7047436A00221A60E5E781
:10D6A000002383F311885DF8044B7047481A00206B
:10D6B000034B00221B605B601B615B619A607047DB
:10D6C000481A0020000000000000000000000000D8
:10D6D00000228168084B10B4044602771B689A68E0
:10D6E0008A42FBD25A6862602360204614605C6004
:10D6F0005DF8044B704700BF481A0020000000008E
:10D70000084B99691A6810B408770420C877106824
:10D71000186001244360147710465DF8044B9A6149
:10D72000FEF7F6BC481A00200000000000000000D0
:10D7300030B54B1C87B012D00C4C0D4AA36905467E
:10D7400001A8FFF745FF2846FFF7DAFF049B13B156
:10D7500001A8FFF75DFFA369586A07B030BD034C0D
:10D76000FFF7CEFFA369586A07B030BD481A002002
:10D7700041D600080000000000000000000000008A
:10D78000144B70B404469D694162A868A168814247
:10D790004FF000020BD822771B689A689142FBD9A0
:10D7A0005A686260236014605C6070BC70472A77BE
:10D7B0001A46126891688842FBD950686860012651
:10D7C0002A60056055602677294620469C6170BC1A
:10D7D000FEF79EBC481A0020000000000000000078
:10D7E000084B9A691B68D17F9B68906821B9834276
:10D7F00034BF002001207047834294BF00200120E5
:10D80000704700BF481A0020000000000000000020
:10D810000E4A1068036870B4012194695A600426A6
:10D8200001770025A16813609061E677257700E015
:10D830001B689A688A42FBD25A686260236021465C
:10D8400014605C6070BCFEF763BC00BF481A002027
:10D850000D4A1068036830B4012194695A600025AC
:10D860000177A16813609061257700E01B689A68D2
:10D870008A42FBD85A6862602360214614605C606B
:10D8800030BCFEF745BC00BF481A00200000000075
:10D89000044B1A689B6992689B689A4200D870474B
:10D8A000FFF7D6BF481A002000000000000000006B
:10D8B000034B9B69DB7F0BB1FFF7CABFFFF7A8BF24
:10D8C000481A0020000000000000000000000000D6
:10D8D000F0B50F4C0164656981600226002206776D
:10D8E00000F12C014FF0040E012700F128064561DC
:10D8F000046180F81FE087774277C2638263026227
:10D900008261286160618662C1620163F0BD00BF0F
:10D91000481A002000000000000000000000000085
:10D920006439F0B50144124E124D7769C1600B6441
:10D93000059B4B6402230D664FF0040E8260026467
:10D94000037700F12C020023012500F12801066174
:10D95000476180F81FE085774377C3638363036281
:10D960008361386181627061C2620263F0BD00BF91
:10D97000481A002029C10008000000000000000033
:10D98000F8B51D460446202383F311886439014409
:10D99000134E144B7769C1600D64069D4D640B6690
:10D9A00002250423826002640577C377002500F115
:10D9B0002C0300F128020121817706614761457738
:10D9C000C563856305628561294638618262C362E9
:10D9D00003637061FFF7D4FE85F311882046F8BD1C
:10D9E000481A002029C100080000000000000000C3
:10D9F00008B50146202383F311880820FFF798FE1D
:10DA0000002383F3118808BD00000000000000001F
:10DA100038B50E4B9C69A36A606204F128059D42EB
:10DA200007D01A68A2621846FFF752FEA36AAB42FB
:10DA3000F7D1637F9B0704D1636922691A61226968
:10DA400053610F20BDE83840FFF75ABE481A002046
:10DA5000202383F31188FFF7DBBF00BF0000000025
:10DA600010B5054CA369036002465A620320FFF714
:10DA700047FEA369586A10BD481A00200000000044
:10DA8000054B02469B6921B1036003205A62FFF7F0
:10DA90004FBE4FF0FF307047481A002000000000D2
:10DAA00003682BB10022026018465962FFF710BECE
:10DAB000704700BF000000000000000000000000F0
:10DAC00069B1084B10B4024644689B69042083E89E
:10DAD0001400236053605DF8044BFFF729BE4FF03C
:10DAE000FF307047481A00200000000000000000CE
:10DAF00038B5036898420BD004460D461A68226078
:10DB0000184654605D62FFF7E3FD23689C42F5D13F
:10DB100038BD00BF00000000000000000000000051
:10DB2000014B5B6883607047001000E0000000005C
:10DB30000F4B10495A688368F0B48F6FC66841680C
:10DB4000D0E90445D31ADB1BE41845F10005013682
:10DB50008B42C6608360C0E9044505D802689342E1
:10DB600038BF0360F0BC70474360F0BC704700BF33
:10DB7000001000E0481A0020000000000000000033
:10DB8000D0B50C4C86B000234FF0FF32684600261B
:10DB90000027A3670193029303930092CDE90467E2
:10DBA000FFF7BEFF6846FFF7C3FF029BA36706B0FF
:10DBB000D0BD00BF481A0020000000000000000097
:10DBC0000146202383F31188837F013BDBB28377F7
:10DBD000002282F3118813B9037F0F2B00D0704706
:10DBE000437F03F00303012B02D0022B07D07047C1
:10DBF000436902691A610269536100F019BB436904
:10DC000002691A610269406C536100F089BB00BF70
:10DC1000202383F31188044B1869837F01338377B2
:10DC2000002383F311887047481A00200000000089
:10DC300010B5202383F31188074B04699C421DBF54
:10DC4000A37F0133A3770024002383F31188FFF718
:10DC5000B7FF204610BD00BF481A0020000000009A
:10DC60000023006040608360704700BF0000000038
:10DC7000304B826870B59C69002A55D0A1689368C2
:10DC80008B42054606D2137F9160062B33D0072BBB
:10DC90001DD09BB12B4603E09968A268914202D344
:10DCA0001B689D42F8D15A686260236014605C6012
:10DCB00065620620BDE87040FFF722BD92E80A00C9
:10DCC0001960116810464B60FFF702FDE2E792E829
:10DCD0000900186010684360566A334602E098688D
:10DCE000884202D31B689E42F9D159685160136083
:10DCF0000A605A60CEE792E8090018601068436035
:10DD0000566A334602E09868884202D31B689E42F6
:10DD1000F9D15968516013600A605A60B268A1680D
:10DD200093688B42AFD3B5E7E36BC3608460E06375
:10DD300070BD00BF481A0020000000000000000075
:10DD400008B5202383F31188FFF792FF002383F3A4
:10DD5000118808BD00000000000000000000000065
:10DD6000174B70B59D69202383F311880468C3683D
:10DD7000EB6384421DD0296C4BB11A68934203D0E7
:10DD80009268914238BF1146DB68002BF5D10346FB
:10DD90002268E66BA96020461A6053609C60DE60D2
:10DDA000E363FFF795FCFFF773FD002383F311880E
:10DDB00070BD0023A360002383F3118870BD00BFF2
:10DDC000481A0020000000000000000000000000D1
:10DDD00030B4202484F31188064D0468AD690C60CA
:10DDE000002401604D608A600B61CC6084F311886F
:10DDF00030BC7047481A00200000000000000000FE
:10DE0000202383F31188024602E08B4207D01A4692
:10DE100013689842F9D1002383F3118870470B6887
:10DE20001360002383F31188704700BF00000000D7
:10DE3000836B027F19430A2A816309D00B2A00D021
:10DE40007047436A8B43FBD100234362FFF740BC1A
:10DE5000436A1942F8D1704700000000000000003A
:10DE600070B50468A0420FD006460D46E3682B4308
:10DE7000E36015B12269134203D0A1686068FFF71F
:10DE8000D7FF2468A642F1D170BD00BF000000009A
:10DE900008B5202383F31188FFF7CAFFFFF7F8FCCA
:10DEA000002383F3118808BD00000000000000007B
:10DEB00038B50C4B9D69202383F31188AB6B13EAB3
:10DEC000000406D1044668620A20FFF719FCAB6B18
:10DED0001C4023EA0403AB63002383F3118820462C
:10DEE00038BD00BF481A00200000000000000000FC
:10DEF000124B70B59E69202383F31188B36B13EA2C
:10DF000000040ED119B981F31188084670BD706202
:10DF100005460A20FFF70CFC00280ADBB36B05EA74
:10DF2000030423EA0403B363002383F31188204628
:10DF300070BD84F31188204670BD00BF481A0020D0
:10DF400030B4029C046200250A44856002610060CE
:10DF50004060C16081614161C36130BC704700BFF6
:10DF60000021C2688160826142616FF00101FFF7A8
:10DF7000BFBD00BF00000000000000000000000066
:10DF800070B520230E46044683F31188C3692BB174
:10DF9000984703E0FFF794FD002815DBA56831469C
:10DFA0002046002DF6D0A169A36825694A1C013BD3
:10DFB000AA42A360A26128BFE368087828BFA361D2
:10DFC000002383F3118870BD85F3118870BD00BFF5
:10DFD0002DE9F04F044683B0894693461D46D0F89C
:10DFE0001C80202787F3118800260197B246B8F1DC
:10DFF000000F05D02046C04702E0FFF761FDE0B901
:10E00000A76829462046002FF7D0A269A368511CB3
:10E01000013BA161A360137809F8013B2369A26960
:10E020009A4224BFE368A3618AF311880136B3459D
:10E0300005D0019B83F31188D9E787F31188304617
:10E0400003B0BDE8F08F00BF00000000000000003A
:10E0500030B4029C04628D180561006040608260EB
:10E06000C16081614161C36130BC70470000000044
:10E0700010B40269C4688461121B44616FF001012D
:10E0800082605DF8044BFFF733BD00BF0000000065
:10E09000F8B504460F461646202383F3118803E0A3
:10E0A000FFF70EFD002819DBA56831462046002D3C
:10E0B000F6D06269A368511C013B6161A3601770CF
:10E0C000236962699A4224BFE3686361E3690BB123
:10E0D00020469847002080F31188F8BD85F3118809
:10E0E000F8BD00BF000000000000000000000000BC
:10E0F0002DE9F04F83B004460D4616460193D0F843
:10E100001C804FF0200989F311880027BA46A368C4
:10E1100005F1010B204603B36169A3684A1C013B6A
:10E120006261A3602B780B7023696169994224BFF7
:10E13000E3686361B8F1000F00D0C0478AF311882B
:10E14000013E07F1010712D089F31188A3685D46EB
:10E1500005F1010B2046002BDED1019900932046EA
:10E16000FFF7AEFC009B0028D1D083F3118838461E
:10E1700003B0BDE8F08F00BF000000000000000009
:10E18000054A064B0648074922F0070223F0070319
:10E1900002600B60704700BFF31E012000000220E8
:10E1A000A41C0020A01C00200000000000000000B3
:10E1B00010B4202383F31188094C0A4B2268196894
:10E1C000C31D23F00703891A8B429DBF9B18236050
:10E1D00010460020002383F311885DF8044B70473C
:10E1E000A41C0020A01C0020000000000000000073
:10E1F000024A034B10681B68C01A7047A01C00201D
:10E20000A41C00200000000000000000000000002E
:10E21000044B054A1A6003F1100000229A60DA608C
:10E22000FFF71EBDA81C0020B1E10008000000009F
:10E23000F8B550F8085C05F110070646A0F108048F
:10E2400008353846FFF77CFD2B46AB4204D0A3428D
:10E2500002D31B68AB42FAD11A681AB1944201D3B7
:10E260001346F2E746F8082C1C6056F8041C56F8D2
:10E27000085C01F10802A018A8420AD0596801F10F
:10E2800008021A44944212D03846BDE8F840FFF71D
:10E2900067BD40680144083146F8041CA25846F89E
:10E2A000082C596801F108021A449442ECD156F83E
:10E2B000042C0A4408325A6056F8082C1A60384672
:10E2C000BDE8F840FFF74CBD000000000000000072
:10E2D00070B50F4C002818BF044604F110052846FD
:10E2E0000E46FFF72DFDA36873B10022144658684F
:10E2F0001B6801340244002BF9D106B13260284674
:10E30000FFF72EFD204670BD1A461C46F5E700BFFC
:10E31000A81C002000000000000000000000000019
:10E32000202383F3118803680B600023016083F3CB
:10E33000118870470000000000000000000000008D
:10E34000064A536823F001035360EFF309836833EF
:10E3500083F30988002383F31188704730EF00E0CE
:10E36000202383F31188124B5B6813F4006302D1FE
:10E3700083F31188704710B5F1EE103AEFF309847A
:10E380000C4B4FF08072DB6844F8083C44F84C2C8E
:10E39000A4F1680383F30988FFF722FA18B1064B4A
:10E3A00044F8503C10BD054B44F8503C10BD00BF34
:10E3B00000ED00E030EF00E039C100083CC100088A
:10E3C00008B501F025F90B4801F09AFC00F020F89F
:10E3D00000F0C6F800F03CF900F042FB00F050FB02
:10E3E00000F08EFB00F02CFA03F012FABDE80840B2
:10E3F00000F006B800FA020800000000000000006B
:10E4000001F0B6B9000000000000000000000000AC
:10E4100001F01EBB00000000000000000000000032
:10E42000F0B40122002300F1180700F11C0600F1EE
:10E43000200500F1240400F128010270436000F17E
:10E44000080200F110038761C661056244628162BF
:10E450008260C26003614361F0BC7047000000004D
:10E4600010B52023044683F3118802230370416012
:10E4700001F006FB03232370002383F3118810BDF2
:10E4800010B52023044683F3118801F031FB2046A8
:10E49000012300F8103B6FF00101FFF729FB04F1A5
:10E4A00008006FF00101FFF723FBFFF7F1F90023EC
:10E4B00083F3118810BD00BF0000000000000000C1
:10E4C0002DE9F0411F4604460D469046202383F374
:10E4D000118800F108062378042B2946204602D033
:10E4E00001F02EFB50B939463046FFF7E9FA002813
:10E4F000F1D0002383F31188BDE8F0812046424625
:10E50000294601F03DFB002080F31188BDE8F08131
:10E510002DE9F0411F4604460D469046202383F323
:10E52000118800F110062378042B2946204602D0DA
:10E5300001F066FB50B939463046FFF7C1FA0028B2
:10E54000F1D0002383F31188BDE8F08120464246D4
:10E55000294601F075FB002080F31188BDE8F081A9
:10E5600001F04EBE000000000000000000000000AE
:10E5700001220023027043600C30FFF771BB00BF23
:10E5800010B52023044683F31188416001F050FE4A
:10E5900002232370002383F3118810BD00000000C4
:10E5A00010B52023044683F3118801F0F9FE0123FE
:10E5B0002370002383F3118810BD00BF000000000A
:10E5C000F0B585B004460B9E0C9F4FF0200E8EF3E5
:10E5D00011884FF0030E019600250A9E02970096BF
:10E5E000856080F800E001F063FF431C0CBF052349
:10E5F00002232370002383F3118805B0F0BD00BF10
:10E60000F0B583B00446089F202585F311880026C5
:10E61000042500978660057001F00AFF431C0CBFBB
:10E62000052302232370002383F3118803B0F0BD78
:10E630000C30FFF785BB00BF0000000000000000A9
:10E640000C30FFF78DBB00BF000000000000000091
:10E6500002F0E6BD00000000000000000000000025
:10E660000122002302704360704700BF00000000D9
:10E6700010B52023044683F31188416002F0E0FDC9
:10E6800002232370002383F3118810BD00000000D3
:10E6900010B52023044683F3118802F031FE0123D4
:10E6A0002370002383F3118810BD00BF0000000019
:10E6B00010B52023044683F3118802F041FE0323A2
:10E6C0002370002383F3118810BD00BF00000000F9
:10E6D00008B5202383F3118802F042FE002383F360
:10E6E000118808BD000000000000000000000000CC
:10E6F00010B5046AD4F8542213681978042900D09C
:10E7000010BD217A0229FBD110791989012202FA60
:10E7100000F313EA0102F3D1216CE36BA06BCB1A77
:10E720001B1AEDD082F31188D4F8542211791068A5
:10E7300004F1300200F04CFA202383F31188D4F85E
:10E740005432BDE810401979186800F069BA00BF6A
:10E7500038B5046AD4F8542213681978042900D013
:10E7600038BD217A0229FBD1507959890122824092
:10E770000A40F5D103EB8003A169E069DB686569B4
:10E780005B8A401A411B8B42EAD882F31188B1FBA5
:10E79000F3F1D4F8542203FB01F31068517904F12A
:10E7A0000C0200F005FA202383F31188D4F85432C8
:10E7B00059791868BDE8384000F01ABA0000000026
:10E7C0000C30FFF705BC00BF000000000000000097
:10E7D0000C304FF0FF33FFF7FBBB00BF0000000021
:10E7E0003030FFF785BC00BF0000000000000000D3
:10E7F00030304FF0FF33FFF77BBC00BF000000005C
:10E800000C30FFF7BDBB00BF00000000000000009F
:10E810000C304FF0FF31FFF7B3BB00BF000000002A
:10E820003030FFF735BC00BF0000000000000000E2
:10E8300030304FF0FF32FFF72BBC00BF000000006C
:10E84000704700BF00000000000000000000000052
:10E8500010B503460E4A43F8042B82B00122044649
:10E86000009000F15401436002720A4B0C304FF4E7
:10E870008072FFF765FB009404F5AA7104F1300083
:10E88000054B4FF48072FFF7E3FB02B010BD00BFF1
:10E8900090F8020851E70008F1E6000800000000C7
:10E8A0000B68202282F311880A7903EB82029061BF
:10E8B0004A79093243F822008A7912B103EB8203C4
:10E8C000986102230372C0F85412002383F3118865
:10E8D000704700BF000000000000000000000000C2
:10E8E00070B5D0F8543200F10C06044630461D686D
:10E8F000FFF736FB04F13000FFF7BAFB201D0121C2
:10E90000FFF7AEFAD4F85432597905EB8103284663
:10E91000DB6832465B8A00F04BF9D4F85432284663
:10E920005979BDE8704000F063B900BF00000000F5
:10E9300090F8443003F06003202B01D00020704792
:10E9400090F84530212B03D0222B09D0202BF5D174
:10E95000064B836307220023C263036401207047D0
:10E9600000238363C3630364012070470010002009
:10E97000F8B500EB81039C69BCB10E460546202723
:10E9800087F311880821201DFFF76AFA226CE36BD8
:10E99000A16BD31A5B1A10D105EB8603DB685A69A9
:10E9A00052681AB9002383F31188F8BD1B8A013B12
:10E9B0001340F7D183F3118802E0002282F311881B
:10E9C00004F130023146284600F002F987F311883D
:10E9D0003146284600F024F9E4E700BF00000000BB
:10E9E0002DE9F84301F1090350F82360BEB18046D8
:10E9F0000F464FF0200989F3118804217018FFF7A2
:10EA00002FFA08EB8703B469DA68F5697369518AEC
:10EA10002D1BEC1AA14204D9002383F31188BDE811
:10EA2000F883002383F31188B4FBF1F306F10C02A1
:10EA300001FB03F34046394600F0BAF889F3118828
:10EA40003946404600F0D4F8E6E700BF0000000079
:10EA5000704700BF00000000000000000000000040
:10EA600002F066BB00000000000000000000000093
:10EA7000002301220270436083600C30FFF7F0B87E
:10EA800002F086BD00000000000000000000000051
:10EA9000002301220270437083704360704700BFFF
:10EAA00010B52023044683F31188416002F098FDDD
:10EAB00002232370002383F3118810BD000000009F
:10EAC00010B52023044683F3118802F039FE002399
:10EAD000012222706370A37083F3118810BD00BF00
:10EAE00010B52023044683F3118802F059FE012358
:10EAF0006370002383F3118810BD00BF0000000085
:10EB000001F0FEBE00000000000000000000000058
:10EB10000023012202704360C36183620362C36207
:10EB20004362036303814381704700BF000000001C
:10EB300038B50446202383F3118800254160C56061
:10EB400005614561856101F0F3FE0223237085F3C1
:10EB5000118838BD00000000000000000000000027
:10EB600010B52023044683F3118801F059FF0123D7
:10EB70002370002383F3118810BD00BF0000000044
:10EB8000536910B42BB100241C605C609C60DC6095
:10EB90001C6193692BB100241C605C609C60DC608C
:10EBA0001C6100EB81035DF8044BDA6001F0D8BF13
:10EBB00070B400EB81040126E468A4690025E260DA
:10EBC00063602670A56070BC02F0B2B8000000005F
:10EBD00070B400EB81040126E46864690025E260FA
:10EBE00063602670A56070BC02F022B900000000CE
:10EBF000012270B502FA01F344899BB214EA0306BC
:10EC000001D0104670BD2343438102F029FA3046FB
:10EC100070BD00BF00000000000000000000000008
:10EC2000012270B502FA01F304899BB214EA0306CB
:10EC300001D0104670BD2343038102F021FA304613
:10EC400070BD00BF000000000000000000000000D8
:10EC5000002202210170A0F84C2080F84E2080F89C
:10EC60004F2002814281C26002614261826180F86C
:10EC7000342001F0FDBE00BF0000000000000000D5
:10EC8000F8B50023044680F8343000F1440202F065
:10EC90003FF863689B68002B36D0204698470028D1
:10ECA00032D0E06B94F8443094F84B1094F84A203A
:10ECB00042EA012282423CBFE26310461A0600F19A
:10ECC000AB80002800F08B80E368A56B9B69002275
:10ECD000042184F834101146DD6058601A709A607F
:10ECE000204602F025F8202383F31188638913F06E
:10ECF000010105D143F001036381204602F0B0F920
:10ED0000002383F31188F8BD94F8443013F06007B2
:10ED10001E4611D00021204602F0DAF900212046DB
:10ED200002F0C6F963681B6813B1052120469847B5
:10ED3000062384F83430F8BD94F8450003F07F02D0
:10ED400042EA0025B5F5407F00F0EB8016D9B5F515
:10ED5000C06F00F0CE802FD9B5F5106F76D040F699
:10ED60000242954200F0EF80B5F5006FD2D104F178
:10ED70004F0201202764A263E06395E7022D00F0B3
:10ED8000A28040F29780B5F5807F00F08480B5F5D1
:10ED9000817FBFD194F84630002BBBD194F8483026
:10EDA00013F00F0115D01E06204600F1F48002F08A
:10EDB0009FF994F844600CE040F202339D4257D032
:10EDC000B5F5A06FA6D1B4F84430B3F5A06F00F04C
:10EDD000D0800023A363E363236433062AD4E3686B
:10EDE0005A690521002384F8341019461370D36042
:10EDF00053609360204602F01BF8202383F31188B0
:10EE0000238913F001017FF47BAF43F001032381D9
:10EE1000204602F035F973E760B1E368A56B5B69E2
:10EE20000022012184F834101146DD6058601A7008
:10EE30009A60DFE7E3689A690321002384F83410BD
:10EE400019461370D3605360936049E794F84630D5
:10EE500084F84F30002B7DD10323237063681B6837
:10EE6000002BB6D002212046984794F84460B0E7C2
:10EE700094F84630002B7FF44DAF94F8483013F0EF
:10EE80000F01A6D01D06204600F18A8002F010F97D
:10EE900094F844609DE794F84630012B7FF43AAF34
:10EEA000B4F84C30A76323F00203E7632764A4F8A7
:10EEB0004C3092E7002D43D104F14C02022025642E
:10EEC000A263E063F0E694F8481011F0800F20464A
:10EED00001F00F0141D101F0FBFE012841D00228D1
:10EEE0007FF418AF314BA363E063276494F8443098
:10EEF000DAE694F84900616894F848304D6894F86F
:10EF0000462094F8471043EA00232046A8470028EB
:10EF10003FF400AF09C82764A363E06394F844306A
:10EF2000C2E694F84630012B7FF4F4AEB4F84C30CE
:10EF3000A76343F00203E7632764A4F84C304CE76F
:10EF4000012D7FF4E7AE1A4AA26302200022E0639B
:10EF50002264A9E60423237080E701F0C9FE01289A
:10EF6000BDD1144BA363E5632764284694F844306D
:10EF70009AE694F8463084F84E30204601F0E0FDE1
:10EF800063681B6813B1012120469847032394F856
:10EF9000446023701DE702F0BBF894F8446018E762
:10EFA00002F096F894F8446013E700BFC0F8020836
:10EFB000B0F80208D0F802080000000000000000CD
:10EFC00090F8343010B50446062B15D8DFE803F06E
:10EFD000043B1C0404150400002102F079F8002110
:10EFE000204602F065F863681B6813B105212046CE
:10EFF0009847062384F8343010BD036C03B198475A
:10F00000002384F8343010BDC3689A6903210023BB
:10F0100084F83410204619461370D360536093600F
:10F0200001F086FE202383F31188638913F0010128
:10F0300005D143F001036381204602F011F800235B
:10F0400083F3118810BD90F84B1090F84A30C26BD2
:10F0500043EA01239342C368D7D9188AB2FBF0F17F
:10F0600000FB1122002AD0D15B6911461A70DA60C8
:10F070005A609A60204601F0DBFE202383F311885A
:10F08000238913F0010105D143F0010323812046B8
:10F0900001F0F6FF002383F31188022384F8343053
:10F0A00010BD00BF000000000000000000000000D4
:10F0B00090F83420062A0CD80123934013F0670FF0
:10F0C00010B5044612D113F0080203D1DB061ED49A
:10F0D00010BD7047C3689B699B68002BF8D1036C17
:10F0E00003B19847002384F8343010BD002101F0AB
:10F0F000EFFF0021204601F0DBFF63681B6813B1BE
:10F10000052120469847062384F8343010BDC36893
:10F110005B69052180F834101A70DA605A609A60D1
:10F12000114601F085FE202383F31188238913F013
:10F13000010103D0002383F3118810BD43F00103C4
:10F140002381204601F09CFFF4E700BF000000008F
:10F1500043099B0010B403F1604300F1604404F5DF
:10F16000614403F56143090100F01F00012202FA26
:10F1700000F0C9B284F80013C3F8800118605DF88C
:10F18000044B704700000000000000000000000079
:10F190000849430910B4203300F01F040122084439
:10F1A000A240002441F8232080F800435DF8044B7E
:10F1B000704700BF00E100E0000000000000000018
:10F1C00000F1604000F56D400901C9B20176704759
:10F1D00008B5074B074A196801F03D0199601368AB
:10F1E0000BB150689847BDE80840FFF7B9B800BFB9
:10F1F00000600240C81C0020000000000000000069
:10F20000084B094819688268890901F03D0110B569
:10F210008C019C600AB1C0689047BDE81040FFF7C0
:10F220009FB800BF00600240C81C00200000000022
:10F23000084B094819680269090C01F03D0110B535
:10F240000C049C600AB140699047BDE81040FFF78C
:10F2500087B800BF00600240C81C0020000000000A
:10F26000084B094819688269890D01F03D0110B504
:10F270008C059C600AB1C0699047BDE81040FFF75B
:10F280006FB800BF00600240C81C002000000000F2
:10F2900008B5074B07485968026A01F03D01D9607B
:10F2A0000AB1406A9047BDE80840FFF759B800BF6F
:10F2B00000600240C81C00200000000000000000A8
:10F2C000084B09485968826A890901F03D0110B567
:10F2D0008C01DC600AB1C06A9047BDE81040FFF7BE
:10F2E0003FB800BF00600240C81C002000000000C2
:10F2F000084B09485968026B090C01F03D0110B533
:10F300000C04DC600AB1406B9047BDE81040FFF789
:10F3100027B800BF00600240C81C002000000000A9
:10F32000084B09485968826B890D01F03D0110B501
:10F330008C05DC600AB1C06B9047BDE81040FFF758
:10F340000FB800BF00600240C81C00200000000091
:10F3500008B5074B07481968026C01F03D01996038
:10F360000AB1406C9047BDE80840FEF7F9BF00BF06
:10F3700000640240C81C00200000000000000000E3
:10F38000084B09481968826C890901F03D0110B5E4
:10F390008C019C600AB1C06C9047BDE81040FEF73C
:10F3A000DFBF00BF00640240C81C00200000000056
:10F3B000084B09481968026D090C01F03D0110B5B0
:10F3C0000C049C600AB1406D9047BDE81040FEF708
:10F3D000C7BF00BF00640240C81C0020000000003E
:10F3E000084B09481968826D890D01F03D0110B57F
:10F3F0008C059C600AB1C06D9047BDE81040FEF7D7
:10F40000AFBF00BF00640240C81C00200000000025
:10F4100008B5074B07485968026E01F03D01D960F5
:10F420000AB1406E9047BDE80840FEF799BF00BFA3
:10F4300000640240C81C0020000000000000000022
:10F44000084B09485968826E890901F03D0110B5E1
:10F450008C01DC600AB1C06E9047BDE81040FEF739
:10F460007FBF00BF00640240C81C002000000000F5
:10F47000084B09485968026F090C01F03D0110B5AD
:10F480000C04DC600AB1406F9047BDE81040FEF705
:10F4900067BF00BF00640240C81C002000000000DD
:10F4A000084B09485968826F890D01F03D0110B57C
:10F4B0008C05DC600AB1C06F9047BDE81040FEF7D4
:10F4C0004FBF00BF00640240C81C002000000000C5
:10F4D0000E490F4A0F48002310B40B600E4C19461A
:10F4E00001E052F80C0C016044F833100133102B8A
:10F4F00002F10C02F5D10949094A5DF8044B4FF0BD
:10F50000FF338B60CB609360D3607047481D002051
:10F51000ECF8020810600240C81C002000600240A5
:10F520000064024000000000000000000000000035
:10F53000F8B51F4F467A3D68012404FA06FE1EEA1C
:10F54000050F31D11B4C4EEA050504EBC60E15F034
:10F55000FF0F3D6044F83620CEF8043004D0164C3E
:10F56000236B43F40013236315F47F4F16D1056812
:10F570002B6823F01F032B602B6813F00104FBD1D1
:10F58000077A46683D23BB40212733602C606F61BA
:10F5900062B1807AFFF7DCFD2046F8BD064C236B94
:10F5A00043F480032363E2E72046F8BD1046F8BD2C
:10F5B000481D0020C81C0020003802400000000048
:10F5C00010B50446807AFFF7E3FD0C49607A0A68BB
:10F5D0000123834022EA030313F0FF0F0B6004D1E1
:10F5E00007490A6B22F400120A6313F47F4F04D117
:10F5F000034A136B23F48003136310BD481D0020DE
:10F600000038024000000000000000000000000080
:10F61000174B4FF0FF311A69002210B419611A61BB
:10F62000586959615A61186A124C60F0805018622A
:10F630001A62586A59625A62196C41F08051196411
:10F64000216841F480712160196F01F44071B1F5B6
:10F65000007F03D04FF4803119671A67054A5DF8BF
:10F66000044B536823F400735360FFF731BF00BFAE
:10F670000038024000700040000000000000000060
:10F680002C492D4B4FF080504FF4404208641A60D3
:10F690000B6843F001030B600A68264B9007FBD50B
:10F6A0009A6822F003029A609A689A6019468B68F9
:10F6B000204A13F00C03FAD1116801F0F90111602E
:10F6C0009360136843F4803313601168194B890306
:10F6D000FBD55A6F42F001025A675A6F15499007DD
:10F6E000FBD5164B4B600B68134A43F080730B60DD
:10F6F00053685904FCD50F490A680E4B9201FBD59B
:10F700000F4A1049996040F2057111609A6842F001
:10F7100002029A601A469368064903F00C03082B0C
:10F72000F9D14B6C43F480434B644B6E43F48043FC
:10F730004B66704700380240007000400854400794
:10F74000003C024000940838000000000000000067
:10F7500008B5202383F31188FDF7EAFE002383F325
:10F760001188BDE80840FEF7FBBD00BF00000000A7
:10F77000054B44F29F110020072259609860082130
:10F780000B201A60FFF71CBD10E000E00000000035
:10F79000F0B5434C434D236C43F000732364D5F81C
:10F7A00000321B0C1B0443F0010343EA0023C5F89D
:10F7B000003200295AD00023C5F81C321846C5F87B
:10F7C00004321C46C5F80C32C5F81432C30003F1EC
:10F7D000804303F5C84301301C28C3F84042C3F8F6
:10F7E0004442F3D12F4D0026012710681479C3003D
:10F7F00003F1804314F0010F03F5C84306F101063D
:10F8000007FA00F005D0D5F804E240EA0E0EC5F87C
:10F8100004E214F0020F05D0D5F80CE240EA0E0E17
:10F82000C5F80CE2640704D5D5F814420443C5F8C2
:10F8300014429468C3F84042D468C3F84442D5F8EF
:10F840001C32B14240EA030002F11002C5F81C026A
:10F85000CBD11449124AD1F8003223F00103C1F888
:10F860000032136C23F000731364F0BDC20002F188
:10F870008042012302F5C842834043F00103C5F8EA
:10F880004012C5F84412C2F84012C2F84412C5F83A
:10F890000412C5F81412C5F80C32C5F81C32D8E7AA
:10F8A000003802400064004000000000000000003A
:10F8B00010B50C4C0C49E26A2023916083F3118847
:10F8C000002104F10800FEF713F904F11C000121E6
:10F8D000FEF7C6FA002383F31188BDE81040FEF757
:10F8E0003FBD00BF4C1D00200101010000000000D1
:10F8F00038B5164DEB6ADC68A20711D1E3060BD5CB
:10F90000EB6A1021D960202383F311881048FEF799
:10F91000A7FA002383F31188BDE83840FEF720BD25
:10F920005A6922F002025A61202383F311880021D0
:10F9300005F11000FEF7DCF805F118000121FEF7D3
:10F940008FFA002383F31188D8E700BF4C1D0020F5
:10F950006C1D0020000000000000000000000000FE
:10F9600038B5164DEB6A1C69A20711D1E3060BD519
:10F97000EB6A10211961202383F311881048FEF7E8
:10F980006FFA002383F31188BDE83840FEF7E8BC26
:10F990005A6922F010025A61202383F31188002152
:10F9A00005F11000FEF7A4F805F118000221FEF79A
:10F9B00057FA002383F31188D8E700BF4C1D0020BD
:10F9C0006C1D00200000000000000000000000008E
:10F9D00038B51B4DEB6A5C681C225A6022071DD4A7
:10F9E000630717D5EA6A9369916921F07001916103
:10F9F00013F0700F03F0070118BF41F00801202237
:10FA000082F311880F4841EA0341FEF729FA0023E7
:10FA100083F31188BDE83840FEF7A2BC1A68284677
:10FA200022F00202032100F8281B20211A6081F332
:10FA300011880021FEF714FA002383F31188CFE721
:10FA40004C1D00206C1D0020000000000000000084
:10FA500010B5064C2046FEF7E3FC0022044BE3629F
:10FA600011460E20BDE81040FFF792BE4C1D00204D
:10FA700000640040000000000000000000000000E2
:10FA8000184B984210B5044615D0E36A01221A605B
:10FA90005A68D10707D401210820FDF749FEE36A1F
:10FAA0005A68D207F7D562680F4950681268D86162
:10FAB0001A60596110BD0B211320FFF749FB0B2180
:10FAC0001420FFF745FB0B211520FFF741FB0B210D
:10FAD0001620FFF73DFB054A136C43F000731364D7
:10FAE000D3E700BF4C1D00205B8F010000380240AF
:10FAF00008B50378032B00D008BD0D4B9842FBD10D
:10FB00000C4B0D4A1A6000225A611320FFF740FB8C
:10FB10001420FFF73DFB1520FFF73AFB1620FFF7F7
:10FB200037FB064A136C23F000731364E4E700BF4D
:10FB30004C1D00200064004002000100003802401B
:10FB400003291AD8DFE801F0110C0702C36A98688C
:10FB5000C0F300707047C36A9868C0F3C060704714
:10FB6000C36A9868C0F380607047C36A9B6813F0EB
:10FB7000E05F14BF0120002070470020704700BFE5
:10FB800010B403291BD8DFE801F02E2A1D02C16A38
:10FB900001F5D07110788406C0F300131AD55468AB
:10FBA0005B0043EAC40343F0040300F00F00486025
:10FBB00090688860D268CA6043F001030B605DF80A
:10FBC000044B7047C16A1078840601F5C871C0F310
:10FBD0000013E4D494885B0043EA4453E5E7C16A28
:10FBE00001F5C071D6E7C16A8B68C3F301631833AE
:10FBF00001EB0311CEE700BF000000000000000091
:10FC0000012911D00AD3022906D1C36A186910F05C
:10FC1000030018BF0120704700207047C36ADA68EC
:10FC20009207F3D001207047C36AD86810F0030030
:10FC300018BF0120704700BF000000000000000056
:10FC400010B471BBC36AD968890731D0D3F8B04109
:10FC5000D3F8B411D3F8B831D360C36AD3F8BC3148
:10FC60001361C36A2020D860D86880073FD0137919
:10FC7000600860F30413A00860F3451313719B063A
:10FC80002FD59368E40864F31C03936013795DF83F
:10FC9000044B080A61F30303090C137110705180BF
:10FCA0007047012928D0022928D05DF8044B7047FD
:10FCB00019698C07F9D0D3F8C041D3F8C411D3F82F
:10FCC000C831D360C36AD3F8CC311361C36A202032
:10FCD000186118698007CAD1586940F0100058614E
:10FCE000C5E71389640D64F30A031381CEE75869ED
:10FCF00040F002005861BAE7C36AA7E7C36ADAE7CF
:10FD0000F0B4654D654C2F6B6549664A664B40F211
:10FD1000FF1637432F632F6D3E432E6545686560A0
:10FD20008568A560C568E560056965614569256206
:10FD30008569656205682560046A4C60446A8C6068
:10FD4000846ACC60C46A4C61046B0C62446B4C6284
:10FD5000C4690C60C16B5160016C9160416CD160F1
:10FD6000816C5161C16C1162016D5162816B1160D6
:10FD7000826D5A60C26D9A60026EDA60426E5A619C
:10FD8000826E1A62C26E5A62426D1A60426FC3F886
:10FD90000424826FC3F80824C26FC3F80C24D0F87F
:10FDA0008020C3F81424D0F88420C3F82024D0F88D
:10FDB0008820C3F82424026FC3F80024D0F89020D0
:10FDC000C3F80428D0F89420C3F80828D0F8982065
:10FDD000C3F80C28D0F89C20C3F81428D0F8A02031
:10FDE000C3F82028D0F8A420C3F82428D0F88C2009
:10FDF000C3F8002803F54063D0F8AC205A60D0F86F
:10FE0000B0209A60D0F8B420DA60D0F8B8205A61F7
:10FE1000D0F8BC201A62D0F8C0205A62D0F8A820CE
:10FE20001A60D0F8C820C3F80424D0F8CC20C3F856
:10FE30000824D0F8D020C3F80C24D0F8D420C3F87C
:10FE40001424D0F8D820C3F82024D0F8DC20C3F83C
:10FE50002424D0F8C420C3F80024D0F8E420C3F848
:10FE60000428D0F8E820C3F80828D0F8EC20C3F81C
:10FE70000C28D0F8F020C3F81428D0F8F420C3F8E8
:10FE80002028D0F8F820C3F82428D0F8E020C3F8C0
:10FE90000028F0BC704700BF00380240000002405C
:10FEA0000004024000080240000C02400000000074
:10FEB0002DE9F04F4FF00F0C02F0030EC2F3800754
:10FEC000C2F3C106C2F341150024C2F3C3124FF0BE
:10FED00001094FF0030830E0D0F820B02BEA03030B
:10FEE00043EA0A030362436809FA04FA23EA0A03AD
:10FEF0003B4343606300D0F808A008FA03F3DB43F8
:10FF00000AEA030A4AEA060AC0F808A0D0F80CA0D8
:10FF100003EA0A0A4AEA050AC0F80CA0D0F800A0D1
:10FF200003EA0A0343EA0E030360490819D07F007D
:10FF3000B600AD004FEA8E0E013404F007039B00BB
:10FF400011F0010F02FA03FA0CFA03F3EDD0072CBB
:10FF5000C2D9D0F824B02BEA030343EA0A03436270
:10FF6000C1E7BDE8F08F00BF000000000000000006
:10FF700011F00C0F38B50546446B12D1296B0A6895
:10FF8000136823F01F0313601368DB07FCD4087A9F
:10FF90004A683D2383401360636843F400736360E1
:10FFA00038BD0248FDF7BCFAE8E700BFA0F9020837
:10FFB00011F00C0F70B50646456B25D1F26A136837
:10FFC000196821F01F011960196811F00104FBD1B3
:10FFD000117A52683D238B4013606B6823F4805381
:10FFE0006B602B6823F480632B602B6843F40073F1
:10FFF0002B60202383F3118806F11C002146FDF7B6
:020000040801F1
:100000004FFD84F3118870BD0148FDF789FAD5E7EB
:10001000A0F902080000000000000000000000003D
:100020003A483B4A70B5446BA369656945EA0343A6
:1000300023F07F4393424CD01ED8073A93423CD0E2
:100040000132934210D16268C36A22F400721B68C5
:1000500062601A6842F001021A60626842F48052DB
:1000600062605B68012B4BD915F00A0F18BFA369BA
:10007000BDE87040FEF774B9264A934212D00232AE
:100080009342F1D1C36A1B685E683EB32368028C59
:1000900043F4A06342F0010202842360BDE8704093
:1000A000FEF75EB96368026B23F400731268636045
:1000B000136843F001031360D6E7038C1A0A0BD0D0
:1000C00003F0010343F0F00302F00602134323613F
:1000D000CAE7038CC3F347032361C5E7636823F4CE
:1000E00000736360236843F400732360202383F369
:1000F00011881C303146FDF7D3FC86F31188B3E735
:10010000236823F480632360AEE700BF7C1D0020DA
:10011000080003008200070000000000000000004B
:100120003348F8B5446B076B66693A68B1B201F4BD
:100130005F43DB436361136823F01F03136013689D
:10014000DB07FCD43A7AC56A7F683D2393402A686E
:100150003B60136823F01F031360136813F001035F
:10016000FBD12F7A6D683D22BA40CF052A6048BF87
:1001700001238D05836044BF43F0020383604A0579
:100180000AD5626822F400726260226843F00403B8
:1001900042F40072226083600F0544BF43F00803FD
:1001A00083604D0444BF43F020038360CC0413D527
:1001B00043F010033104836016D4202383F31188A5
:1001C0006FF001010B48FDF76BFC002383F31188EE
:1001D000BDE8F840FEF7C4B8320405D4002BECD1DA
:1001E000BDE8F840FEF7BCB843F040038360E4E7A5
:1001F0007C1D0020981D0020000000000000000071
:1002000010B5074C2046FEF7B3F9064B064A626369
:10021000002103F13C02E161E362226310BD00BFF3
:100220007C1D0020F8F80208005800400000000083
:10023000F8B50378456B40F256428262012B40F2DA
:100240001642044642623CD02B46E16A226B60684B
:100250000F68D2F800E04168494E05F11002BA601B
:100260004FF41064CEF808204FF4004700222F60AE
:100270002A606C605F684FF6C0743C40077A5C602F
:100280005C68B14244F02A045C604EDD3D4CA14202
:1002900007DC022F68D0032F59D048F6FF720D21DA
:1002A0001962DA6101781A68022992B249D00329E9
:1002B00044D0012935D01A602B6843F001032B602C
:1002C000F8BD314B9842BFD1304EC06A336A304AD4
:1002D00043F4800300213362234631620521FFF796
:1002E00027F92C4A206B23460521FFF721F9336CAF
:1002F00043F48003336405212120FEF729FF052103
:100300002220FEF725FF616AA26A636B41F06061FB
:1003100042F0606241F4403142F440326162A262D4
:1003200093E722F00A0292B2C5E72B2449001A4A49
:100330001C62B2FBF1F2C2F30B02B2E742F00A0216
:10034000B9E722F0080292B242F00202B3E701EBF1
:10035000810202EB8201104AB2FBF1F26FEA8242A3
:100360006FEA924292B29AE701EB41020A49B1FB6D
:10037000F2F26FEA42426FEA524292B28FE700BF56
:10038000A0860100801A06007C1D00200038024073
:10039000B1FF000871FF000880DE8002000000004D
:1003A0000378012B2FD0016B436B0A6870B50024D2
:1003B0004FF400451D601C605C605C61136823F0B5
:1003C0001F0313601368DC07FCD40E7AC56A4C68FF
:1003D0002A683D23B3402360136823F01F03136092
:1003E0001368DB07FCD40446287A6A683D238340FF
:1003F00013600846FFF7E4F8E06AFFF7E1F8084BFE
:100400009C4201D070BD70472120FEF7C1FE222022
:10041000FEF7BEFE034A136C23F480031364F1E776
:100420007C1D002000380240000000000000000099
:100430004900F0B541F0010100250184446B85605D
:10044000DDF814E085F31188C66A416A3768144EF6
:100450003960FA607B602A46B76A202501E082F3A2
:10046000118885F31188A369990702D423689B0535
:1004700007D5B36ADB1BB3F5FA7FF0D34FF0FF303B
:10048000F0BD636843F400736360236843F4A063C2
:10049000714623601C30BDE8F040FDF7F1BA00BFA3
:1004A000481A0020000000000000000000000000CA
:1004B0002DE9F04349000025164607AA01849C4611
:1004C000446B856092E8044185F31188016BC76A2B
:1004D00009683F68836A0B60D0F82490CE60164E9E
:1004E000C1F804C0C7F80090FA60C7F804802A4633
:1004F000B76A202501E082F3118885F31188A3698A
:10050000990702D423689B0508D5B36ADB1BB3F5B2
:10051000FA7FF0D34FF0FF30BDE8F083636843F417
:1005200000736360236843F48073714623601C305A
:10053000BDE8F043FDF7A4BA481A0020000000000F
:100540002DE9F04FB44BB5499A69D0F850909161BC
:1005500087B0202383F31188019300F16003CA461A
:100560000593814699F80030012B06D0D9F85C300C
:1005700063B9DAF81430DB0608D4DAF818300598D5
:1005800043F01003CAF81830FDF76AFA002383F32A
:1005900011889B46DAF8143013F0100324D0D9F8F0
:1005A0005060336A03F4F012B2F5802F32D0B2F506
:1005B000402FEFD103F00F0209EB8202C3F30A13BD
:1005C000D26803339B08106AE4D006F580560222F5
:1005D000316812B140F8041B013A013BF8D1DAF856
:1005E000143013F01003DAD1D9F85C20012101FA9C
:1005F0000BF11142039169D10BF101030293D9F878
:1006000054309DF808B09B689B45C3D9019B83F388
:100610001188A7E703F00F0509EB8505C3F30A145A
:10062000EB6899690B78DBB94B688A68C868033353
:100630009A1AE31C9B084FEA920209D006F58056ED
:100640008646376812B14EF8047B013A013BF8D177
:100650002044C860EB689A6993682344936099E7E3
:10066000C86824B3426906F580562746032F06D989
:1006700003699A4203D3C2684261032FF8D8D6F8BF
:1006800000E000232EFA03F102F1010CC0F814C0BF
:10069000117002694169914224BFC2684261013F01
:1006A00003F1080303D0202B4269EBD1DEE7019B65
:1006B00083F311888368234483600021FDF718FACF
:1006C000FDF7E6F8002383F31188C3E7019A82F36C
:1006D0001188DAF80810D9F85C20039821F001019C
:1006E00022EA0002CAF80810C9F85C2083F31188D6
:1006F00009EB8B07FC68626991685368994280F046
:10070000B580D9F85000268A4FEA4B1800EB080450
:100710005B1AD4F818199E4228BF1E468BB2B6EB5E
:10072000830F0BF1010302932FD81B03CDF810A008
:100730009A461378002B3DD1F31CD4689B0800EB3C
:100740000A0E18BF214605D051F8040BCEF8000060
:10075000013BF9D13444D460FC6862699368516804
:100760003344994293607DD9D9F85000248A00EB34
:100770000805CE1AD5F81839A64228BF26469BB2DE
:10078000B6EB830FD5D9DDF810A00022019B83F3CF
:100790001188DAF8083043F00103CAF808302AB9A2
:1007A000DAF83438039A1A43CAF83428002383F35A
:1007B000118824E700EB0A0ED068F6B1D0F810C01B
:1007C000324691082CD1836900210C465D1C85615D
:1007D0001B78654503FA01F344EA030424BFC368A8
:1007E0008361013A01F1080103D0202901D0836916
:1007F000ECE7CEF80040002AE3D1019B83F3118897
:100800008368334483600021FDF772F9FDF740F8F7
:10081000002383F311889FE7481A0020C0F90208DB
:100820008469BCEB040348BF03339B108B4228BF91
:100830000B464FEA830BCBEB02023BB1214651F84A
:10084000045BCEF80050013BF9D15C44A4458461BF
:1008500004D8C3688361002AB3D1CEE7002ACCD084
:100860002346B1E7DDF810A001228FE70BF1010369
:100870000293F9E700000000000000000000000003
:10088000F0B50024D1F808E025464FF0804C4FF039
:10089000FF3714E0C1F80059C218C2F81059C2F865
:1008A0000879D1F8006B002E17DBC1F8005B034418
:1008B00001347445C3F8105BC3F8087B14D8630196
:1008C000C118D1F80029002AE4DAC1F800C90E469F
:1008D000D6F808299207FBD5DEE7C1F800CBD2F89D
:1008E000081BC906FBD5E2E74FF00113C0F81C381E
:1008F000F0BD00BF0000000000000000000000008C
:1009000010B5064C2046FEF703F94FF0A043044A09
:100910002365002362652366636610BDB81D002051
:10092000B0F9020800000000000000000000000014
:100930000378012B00D0704770B5314B066D98429B
:1009400082B0054618BF34463AD000232D482E49C0
:10095000EB654FF43412F060C6F800182020C6F89A
:10096000003EB263FCF714FE012323612369DB0719
:10097000FCD40C20FCF70CFE2369002BFCDA0024CD
:10098000B460696D286DFFF77BFF6B68C6F810488F
:10099000DB68C6F81448C6F81C486BB143F208037C
:1009A000B3616B6E4FF0FF327261D3B1B36843F045
:1009B0000103B36002B070BD4FF44053B361F0E780
:1009C000124B5A6B42F080025A635A69002042F07F
:1009D00080025A610E2158614320FEF7B9FB2C6D4D
:1009E000B3E70B4B009502224FF4067105F1680046
:1009F000FCF796FF6866FCF76BFEFCF749FFD5E74E
:100A0000B81D0020401400400300200200380240BE
:100A10004105010800000000000000000000000087
:100A200038B50378012B0ED0056D416D044628467C
:100A3000FFF726FF094A00239442E365C5F81C38F6
:100A4000AB60AB6300D038BD4320FEF7A1FB044A86
:100A5000536B23F080035363F5E700BFB81D0020FC
:100A6000003802400000000000000000000000000C
:100A7000F8B5056D202307462B612B6913F0200480
:100A8000FBD10C20FCF784FDD7F854E0DEF80860B9
:100A900023464FF00060FF2105EB43120133B342C0
:100AA000C2F80009C2F8000BC2F80819C2F8081B06
:100AB000F2D9DEF800304FF0FF324FF00111C5F8E7
:100AC00018283A6DC5F81C18BB65DEF800306B625B
:100AD00010231361136913F01004FBD10C20FCF7F1
:100AE00057FDD5F80038114A114823F4FE63C5F8C4
:100AF0000038AB6943F4402343F010030921AB6194
:100B0000C5F81018C5F81418F860C5F8104BC5F8EA
:100B1000002BC5F81049C5F80029BB6D03F1100280
:100B200043F48013BA65AB62F8BD00BF408000108B
:100B3000D0F90208000000000000000000000000E2
:100B4000026D90F84E10D2F8003823F4FE6343EAA9
:100B50000113C2F8003870470000000000000000D8
:100B60002DE9F8430FFA81F800EB88070D46FB6882
:100B70001A6802F00302022A5ED0032A5ED04C4EAD
:100B80004C49012A18BF0E46046DD9686A0104EB6E
:100B9000020E4FF0000CCEF810CB002973D0B3F842
:100BA00012E005F1580149014EEA060E44F801E051
:100BB00005F1100CD4F81C184FF0010E0EFA0CFEC3
:100BC0004EEA0101C4F81C18224499684FF0000E47
:100BD000C2F810E9002933D0998B1A8A01294FEA0B
:100BE0009203826D88BF4B4305F13F0103EB020E78
:100BF00004EB810142EA0343AA0142F02002C0F85B
:100C000058E04B60226123699A06FCD40C20FCF763
:100C1000BFFCFB681A8A05F1480342EA85525B0172
:100C20003243E2500121D4F81C3801FA05F51D4386
:100C3000C4F81C58BDE8F8831F4EA5E71F4EA3E774
:100C400005F13F0204EB8202AB011D49516043F004
:100C50002003236123699B06FCD404EB48180C2075
:100C6000FCF796FCD8F8003923F40043C8F80039A3
:100C7000D4F81C38012202FA05F523EA0503C4F86A
:100C80001C38BDE8F88304EB481105F11009D1F8D0
:100C900000CB2CF4004CC1F800CBD4F81C184FF05A
:100CA000010E0EFA09FE21EA0E01C4F81C188BE7AA
:100CB00000800410008000100080081000800C10DC
:100CC000000400020000000000000000000000001E
:100CD0005831036D49015B5813F4004004D013F4FC
:100CE000001F14BF01200220704700BF0000000059
:100CF0004831036D49015B5813F4004004D013F4EC
:100D0000001F14BF01200220704700BF0000000038
:100D100000EB8101CB681B6A19685B685360116046
:100D2000704700BF0000000000000000000000004D
:100D300000EB810330B4DD68AC696368236131B9CD
:100D4000402B04D940236360094A3F2402E05C1E23
:100D500043F0C042006D6D8A00EB41112B19B3FBCB
:100D6000F5F342EAC343C1F8103B30BC704700BF03
:100D700040000060000000000000000000000000D3
:100D80002DE9F041264E376D07EB40130546D3F8A9
:100D9000084BC3F8084B200703D5D7F814381907B8
:100DA0001DD4E20719D5D7F81438DB0715D506EBA3
:100DB00085061B4CF1688B6958681A69904216D3F6
:100DC0006289CE680123AB4022EA0303638129468E
:100DD00020463346BDE8F0411847BDE8F08106EBF8
:100DE00085032946DB6830465B689847D9E7121AC5
:100DF00000265A609E6029462046FFF799FF20236F
:100E000083F31188236D03EB4515D5F8003B43F0C0
:100E10008063C5F8003B86F31188BDE8F08100BF10
:100E2000B81D0020000000000000000000000000CD
:100E300000EB810310B4DC68626953681361ABB1E5
:100E400071B15A1E006D248A00EB41112244B2FB9D
:100E5000F4F243EAC243C1F810395DF8044B70471D
:100E6000402BEED9402353603F22EBE7036D5DF842
:100E7000044B03EB41114FF40023C1F810397047C4
:100E80002DE9F041314F3D6D05EB40130646D3F897
:100E90000849C3F80849E10703D5D5F81038DA073F
:100EA0000AD4230606D50123D5F8342803FA06F61A
:100EB000164229D1BDE8F08107EB8003D9684B6960
:100EC00058681A69904234D2121A4FF000085A60DA
:100ED000C3F8088031463846FFF7AAFF202383F382
:100EE00011883B6D03EB46100122D0F8001941F048
:100EF0000441C0F80019D3F83418B2400A43C3F8CB
:100F0000342888F31188CCE7202383F31188D5F89F
:100F10003438FA6D0E4823EA0603C5F83438164310
:100F20000021FE65FCF7BCFD002383F31188BDE8BA
:100F3000F0813A89D1F808800123B34022EA030303
:100F40003B8131463846C047ABE700BFB81D0020A3
:100F5000181E00200000000000000000000000003B
:100F600070B53A4D2E6D7469B3691C40E10474612B
:100F70002DD4A20448BFD6F80838230704D56B68DF
:100F8000DB680BB131489847E5062BD46003D6F8EF
:100F9000185807D5E90745D4AA0748D46B074BD49E
:100FA0002E074ED4240307D5E80330D4A90333D445
:100FB0006A0326D42B0303D4BDE87040FDF7D0B9F3
:100FC0000320FFF7DDFEBDE87040FDF7C9B92846F4
:100FD000FDF73EFE6B681B68002BCAD00021284637
:100FE0009847C6E7202383F31188B369184823F094
:100FF0001003B3610021FCF753FD002383F3118834
:10100000C4E70220FFF7BCFE2B03D5D5D8E70020AC
:10101000FFF7B6FEA903CBD50120FFF7B1FE6A03A7
:10102000C8D5EEE70020FFF72BFFAA07B6D50120B1
:10103000FFF726FF6B07B3D50220FFF721FF2E072E
:10104000B0D50320FFF71CFFACE700BFB81D0020A0
:10105000181E00200000000000000000000000003A
:10106000036D03EB4111D1F8003B43F08063C1F8FD
:10107000003B70470000000000000000000000007E
:10108000036D10B403EB41140120D4F8002942F0A1
:101090000442C4F80029D3F834285DF8044B00FA60
:1010A00001F11143C3F83418704700BF000000007D
:1010B000036D03EB4111D1F8003B43F40013C1F879
:1010C000003B70470000000000000000000000002E
:1010D000036D03EB4111D1F8003943F40013C1F85B
:1010E0000039704700000000000000000000000010
:1010F000036D03EB4111D1F8003B23F40013C1F859
:10110000003B7047000000000000000000000000ED
:10111000036D03EB4111D1F8003923F40013C1F83A
:1011200000397047000000000000000000000000CF
:1011300010B50A4C0A4B4FF6FF7220461A80FDF795
:1011400097FC084B08480949094AE06103F124006B
:1011500023626062A162E26210BD00BF58200020DD
:101160005420002040F9020800300140160001061A
:101170004600010600000000000000000000000022
:1011800038B5254DEB6869681C69DA68087D14403C
:10119000E2B2D2431A6190B960072FD52B78042BA5
:1011A00028D0A10712D4E40705D56B681A481B693B
:1011B000984703232B70BDE83840FDF7D1B8A2074C
:1011C0000BD52B78042B04D06307ECD504232B70AC
:1011D000E9E78B68E3B1284698476307E3D52B78A6
:1011E0000D4A042BF2D15168CB68002BEED00A488F
:1011F0009847EBE78B6843B128469847A107D2D5BB
:101200002B78054A042BE1D1EDE7A007ECD4CAE71F
:101210006207E9D4C7E700BF882000200000000073
:1012200010B5034C2046FDF71BFA024BE36010BDDE
:10123000882000200008004000000000000000009E
:10124000F8B50378012B04463AD0C36800221A602F
:101250005A639A635A626168A26888690D7D4E6814
:10126000B2FBF6F220F0FF00013A00274FF6FF76BE
:101270001F61D8609A62DE620A786DB940F201207F
:10128000542198619960C2B113221A6203F13802A5
:10129000343322616361F8BD4FF481706421986139
:1012A00099603AB131221A6203F134023833226173
:1012B0006361F8BD13221A62F6E731221A62E5E78C
:1012C0000B4B984201D0E368C5E70A4B1A6C42F019
:1012D00004021A641A6A002042F004021A6207210A
:1012E00018621E20FDF734FF034BA360EBE700BF3D
:1012F000882000200038024000BD010500000000E9
:1013000008B50378022B00D008BD0849C368002245
:1013100088421A60DA601A61F6D11E20FDF738FFA4
:10132000034A136C23F004031364EDE788200020C4
:101330000038024000000000000000000000000033
:10134000C3685A69002042F0010205215A61186100
:10135000196070470000000000000000000000005D
:10136000C268D36810B413F0FF040CD14168146153
:10137000087D58B1886878B143F00603096909B15E
:1013800043F00103D3605DF8044B70478868002880
:10139000F2D143F00203F1E743F00403EEE700BFAC
:1013A00001690A68136823F01F0313601368DB07E1
:1013B000FCD430B444690D7A496822683D23AB40BF
:1013C0000B60136823F01F031360136813F001030D
:1013D000FBD1257A826860683D21A940016030BC5C
:1013E000D3601361536170470000000000000000EB
:1013F0002DE9F0418468E7682668626840F20F13BF
:1014000033400546EBB143681A696FF4807323607B
:10141000BAB1B3B213F0080F0CBF00211021D807E6
:1014200048BF41F00401980748BF41F00801580740
:1014300048BF41F02001D80548BF41F0400128468F
:10144000904772060ED57B060CD56B685B6827F05B
:1014500040076FF040022260E7601BB12846BDE8FC
:10146000F0411847BDE8F0810000000000000000D6
:1014700011F00C0F38B504461BD161690A68136876
:1014800023F01F0313601368DB07FCD463680D7A35
:1014900048681A683D23AB400221036061702AB19D
:1014A000204690476378022B00D038BD002363703C
:1014B00038BD0248FCF734F8DFE700BFA0F90208A6
:1014C00011F00C0F70B504463BD1A3784BB963689B
:1014D000DB68002B34D0218B204689B2BDE87040F8
:1014E000184721690A68136823F01F031360136803
:1014F000DB07FCD460680D7A4E6881683D23AB4001
:1015000002253360A57039B120468847A378AB42E5
:1015100016D1236960681A68C168E368002914BF9E
:101520004FF488714FF480710B430025012104F1C1
:101530001800A570D0605160136013680B431360EE
:1015400070BD0248FBF7ECFFBFE700BFA0F902083F
:1015500008B50348FFF74CFFBDE80840FCF700BFA3
:10156000A02000200000000000000000000000009B
:1015700008B50348FFF73CFFBDE80840FCF7F0BEA4
:10158000BC2000200000000000000000000000005F
:1015900070B50C4D0C4C0D4E2846FDF779FA0C4BEE
:1015A000AB60062204F1180330462C616B61EA60DF
:1015B000FDF76EFA074BB36004F16C03A834336196
:1015C000746170BDA0200020ECF80208BC2000204F
:1015D000004800400014014000000000000000002E
:1015E000F8B50378012B04463ED085680023A3702C
:1015F00063702046FFF7D4FEA368474A93424BD05E
:1016000002F58062934247D06268444B5169B3FB54
:10161000F1F3AB60D768138B508B918B22692E68E6
:101620006E68E6681268002F43F404534FF0000719
:101630002F6040F0400014BF4FF488774FF480775C
:1016400043F00C0341F0C1019BB23E4380B201273D
:1016500089B2183428616961EB60D4605760166004
:1016600013683B431360F8BD2D4B98423AD02D4B85
:1016700098421DD063681B8B03F4A053B3F5805FC1
:1016800011D022696369A5681068196800222B1DB2
:1016900083608B602283A9E76268234B5169B3FBA7
:1016A000F1F3AB60B6E7E36843F42053E360E8E7A7
:1016B00003461E4A00690C21FDF73AFF23461C4AE7
:1016C00060690C21FDF734FF1A4A536C43F0200384
:1016D00053640C214720FDF73BFDE36843F0206392
:1016E000E360C7E70346114A00690C21FDF720FFBC
:1016F00023460F4A60690C21FDF71AFF0D4A136C4F
:1017000043F4802313640C212720FDF721FDE368B7
:1017100043F00063E360ADE70010014080DE80022B
:10172000A0200020BC20002000BD0105C11401083C
:1017300071140108003802400000000000000000A1
:101740000278022A00D0704710B50446FFF728FE41
:101750002069FDF735FF6069FDF732FF0C4B9C42B5
:101760000CD00C4B9C4200D010BD4720FDF710FD63
:10177000094A536C23F020035364F5E72720FDF753
:1017800007FD054A136C23F48023136410BD00BFCA
:10179000A0200020BC2000200038024000000000F3
:1017A00030B443694568C4681B686D68DA6044F406
:1017B0008A6459601C603DB182686FF0400111601D
:1017C000D16841F04001D1601A6842F001021A600C
:1017D00030BC704700000000000000000000000066
:1017E00010B504460846FCF7E3FC00B110BD0C231D
:1017F00023604FF0FF3010BD00000000000000002B
:10180000FDF73EBF000000000000000000000000E7
:10181000704700BF00000000000000000000000052
:1018200008B5054B054A9B699A6104F0A9FE0A2098
:10183000FCF7DEF8F9E700BF481A002000FB0208B9
:1018400038B5454B454A9B692DED028B9A610AF0EC
:10185000B7F802280CBFB7EE000A9FED410A00203E
:1018600000F05EFE0AF094F80546002841D00024FE
:10187000B7EE000A012000F053FE40F6C410FCF75A
:10188000B7F801209FED370A044400F049FE40F606
:10189000C410FCF7ADF8AC42EAD141F28830FCF755
:1018A000A7F80AF08DF801282CD007F011F90428C8
:1018B000044630D005283BD0032831D00AF038F850
:1018C0008378022B11D1022C41D0062C0DD10CF0C3
:1018D00027FEB0EE408A0CF03BFEF0EE400AB0EE80
:1018E000480A04F0FDFA07F0D3F86420FCF780F80A
:1018F000ADE79FED1C0A012000F012FE0AF060F82F
:101900000128D2D102F05CFD07F0C2F807F0E0F840
