:020000040800F2
:100000004043012031C0000865C0000865C00008F9
:1000100065C0000865C0000865C0000865C000082C
:1000200065C0000865C0000865C0000829E3000835
:1000300065C0000865C0000865C0000877E30008D7
:1000400065C0000865C0000865C0000865C00008FC
:1000500065C0000865C0000865C0000865C00008EC
:1000600065C0000865C0000865C0000811ED000803
:1000700039ED000865ED000891ED0008BDED0008C0
:10008000E5ED000811EE00083DEE000859EE00080D
:1000900095EE0008F9EE00085DEF0008D9EF0008C2
:1000A00065C0000865C0000865C0000865C000089C
:1000B00065C00008F9EF000821F0000865C00008DD
:1000C00065C00008B9F00008B5F1000865C0000877
:1000D00065C0000865C0000865C0000865C000086C
:1000E00065C0000865C0000865C0000865C000085C
:1000F00065C0000865C00008B9F20008E1F2000818
:1001000065C0000865C0000865C0000865C000083B
:1001100065C0000865C0000865C0000865C000082B
:10012000F9E9000829EA00085DEA000891EA0008F8
:10013000C5EA000865C0000865C0000865C0000881
:1001400065C0000865C0000865C00008F5EA000841
:10015000E9EB00081DEC000851EC000885EC0008F4
:1001600065C0000865C0000865C0000865C00008DB
:1001700065C0000865C0000865C0000865C00008CB
:1001800065C0000865C0000865C0000865C00008BB
:1001900065C0000865C0000865C0000865C00008AB
:1001A00065C0000865C0000865C0000865C000089B
:1001B00065C0000865C0000865C0000865C000088B
:1001C000DFF810D000F008F800480047C5AA010881
:1001D000AFF30080402B0120064C074D06E0E0689D
:1001E00040F0010394E8070098471034AC42F6D37E
:1001F000FFF7EAFF1C0200084C02000802E008C8F2
:10020000121F08C1002AFAD170477047002001E090
:1002100001C1121F002AFBD1704700004C020008E8
:10022000000000200C05000000D100082003000899
:1002300000000010A08C000000D10008200300087E
:100240000C050020343E01000C020008C1250AD72D
:10025000A33A038D803F93010128096F12833ACDA1
:10026000CC4C3E042163A040690809254F09352C78
:100270001AFF01018223484223803F1A3408691083
:1002800081291821A310270A1E14D5012709233319
:100290000929581E9D7D02089F04180A113D020875
:1002A000DD3C020813081143E80382400D1A0AD707
:1002B000233B6D092BC75D0402400C085A04083922
:1002C0006E450C024002429602A10869F4092BFC1B
:1002D000018533803F7240290C2904D11440420F1C
:1002E0001EE9A70108E50401141E84AB02081404EA
:1002F0001A1C041EBCAA0208C8041AFC041A7C10AA
:100300001AD0081AD8041A0C0C1A30041A24041A29
:1003100004041AE4141AEC041AF404012400000082
:1003200001FF01FF01FF01FF01FF01FF01FF01FFCD
:1003300001FF01FF01FF01FF01FF01FF01FF01FFBD
:1003400001FF01FF01FF01FF01FF01FF01FF01FFAD
:1003500001FF01FF01FF01FF01FF01FF01FF01FF9D
:1003600001FF01FF01FF01FF01FF01FF01FF01FF8D
:1003700001FF01FF01FF01FF01FF01FF01FF01FF7D
:1003800001FF01FF01FF01FF01FF01FF01FF01FF6D
:1003900001FF01FF01FF01FF01FF01FF01FF01FF5D
:1003A00001FF01FF01FF01FF01FF01FF01FF01FF4D
:1003B00001FF01FF01FF01FF01FF01FF01FF01FF3D
:1003C00001FF01FF01FF01FF01FF01FF01FF01FF2D
:1003D00001FF01FF01FF01FF01FF01FF01FF01FF1D
:1003E00001FF01FF01FF01FF01FF01FF01FF01FF0D
:1003F00001FF01FF01FF01FF01FF01FF01FF01FFFD
:1004000001FF01FF01FF01FF01FF01FF01FF01FFEC
:1004100001FF01FF01FF01FF01FF01FF01FF01FFDC
:1004200001FF01FF01FF01FF01FF01FF01FF01FFCC
:0C04300001FF01FF01FF01FF01FF012D92
:020000040800F2
:10C000002DE9F04F2DED108AC1F80CD0D0F80CD0EE
:10C01000BDEC108ABDE8F08F002383F31188284619
:10C02000A04707F067F906F047FF00DFFEE70000D2
:10C0300072B6094880F30988022080F31488BFF3A0
:10C040006F8F03F0C4F90548016841F47001016085
:10C050000348004770470000402B012088ED00E0B6
:10C06000C1010008FEE740EA01039B0703D009E095
:10C0700008C9121F08C0042AFAD203E011F8013BD4
:10C0800000F8013B521EF9D27047D2B201E000F82D
:10C09000012B491EFBD270470022F6E710B513466C
:10C0A0000A4604461946FFF7F0FF204610BD421E1F
:10C0B00012F8013F002BFBD111F8013B02F8013BC4
:10C0C000002BF9D1704710B5002200E0521C835CB0
:10C0D0008C5CA34201D1002BF8D1D8B2E1B2401A56
:10C0E00010BD30B504460020034600E05B1C9342BF
:10C0F00003D2E05CCD5C401BF8D030BD70B50F4D75
:10C1000000B92868002412E00A4602E09E4203D0EB
:10C11000521C1378002BF9D1DAB2224305D02BB18F
:10C1200024B1002100F8011B04E00446401C0678FD
:10C13000002EE9D12860204670BD0000FC040020DC
:10C140000FB400B58DB010A909900B9000914FF07D
:10C15000FF300A9000200C90054806900548079093
:10C160006A4609A80F9900F097FB0DB05DF814FB23
:10C17000B5C80008D3C800082DE9FF5F1D464FF081
:10C18000FF3BD5E9014691465F464FF00008A9699B
:10C190007F1C01988847296A824688470028F6D183
:10C1A000BAF1FF3F0CD024F4C064002E19DD600604
:10C1B00014D5BAF12B0F09D0BAF12D0F0ED103E02F
:10C1C000584604B0BDE8F09F44F48064A9697F1C20
:10C1D00001988847761E8246002E02DDBAF1300FA4
:10C1E00003D0B9F1000F26D032E0A969761E44F4DD
:10C1F00000747F1C019888478246002E05DDBAF145
:10C20000780F06D0BAF1580F03D0B9F1000F10D053
:10C210001EE0B9F1000F02D0B9F1100F18D1A969D1
:10C22000761E24F400747F1C0198884782461020F3
:10C2300002E0082000E00A20814609E008FB090826
:10C24000A969761E44F400747F1C019888478246D1
:10C25000002E05DD4946504600F009FB0028EDDAC6
:10C26000E96901988847A00502D46FF00100A8E7AA
:10C27000E00725D1600613D5600502D5C8F100009E
:10C2800000E0404629680A1D2A600968220501D598
:10C29000087015E0220701D5088011E008600FE062
:10C2A0002868011D29600068210502D580F80080FA
:10C2B00006E0210702D5A0F8008001E0C0F8008068
:10C2C00038467EE72DE9FF4F087883B09946FF286E
:10C2D00005D0491C2D2804D00024002008E00020AF
:10C2E0000BE00124F9E700EB800003EB4000491C60
:10C2F0000B78FF2BF7D104B140420023029314784E
:10C3000019461D462D2C01D02B2C04D1521C2D2C4E
:10C3100013D000240294AA461478FF2C0FD00A25CB
:10C32000A3FB057801FB05814FF0000C03FB0C110A
:10C33000521CE3194AEB0101EEE70124EAE78144CC
:10C3400053EA010002D019F5C87F06DA03980021EC
:10C35000C0E9001107B0BDE8F08F0025AE4E2F46B2
:10C36000DFF8B882184600F0C2FCCDE90001B9F14F
:10C37000000002DAC9F1000400E004460023A74AE5
:10C380001AEB030B42EB045A12E0E00707D02A46EF
:10C3900033463846414600F045F9074688462A4666
:10C3A00033461046194600F03DF905460E46641026
:10C3B000002CEAD1DDE90001B9F1000F5A465346DD
:10C3C00006DA00F025FC3A46434600F021FC05E081
:10C3D00000F028F93A46434600F024F9029A0AB1DF
:10C3E00081F00041039AC2E90001B3E72DE9FF4F54
:10C3F0001F468DB0D7E901464FF0FF382E20454645
:10C400004FF000090B90B9696D1C0E988847396A86
:10C41000824688470028F6D1BAF1FF3F0AD024F4BB
:10C42000D064002E11DDBAF12B0F08D0BAF12D0F18
:10C430000BD102E0404611B08DE744F48064B96945
:10C440006D1C0E9888478246761E6946600501D5A8
:10C450002D2000E02B208DF8000001F1010B0DF1E3
:10C46000200809E0B9696D1C0E98884782460F982C
:10C4700044F40074761E0560002E02DDBAF1300F20
:10C48000F0D00B998A453ED144F0800406E00F9924
:10C49000681CA9F1010944F400740860B9696D1CB5
:10C4A000761E0E98884782463028F0D02BE00B99F4
:10C4B0008A4505D1200603D444F08004761E18E096
:10C4C000504604F002FA08B30DF11301761E44F44D
:10C4D00000748B4508D2AAF130000BF8010B20063E
:10C4E00007D5A9F1010003E0200602D409F10100FB
:10C4F0008146A00502D50F99681C0860B9696D1CBA
:10C500000E9888478246002ED1DC53E0002E51DD84
:10C51000BAF1650F02D0BAF1450F4BD1A00549D54C
:10C52000B9696D1C24F44074761E0E9888478246C3
:10C53000002E0CDD2B2804D0BAF12D0F07D144F4C6
:10C540008074B9696D1C0E9888478246761EE00596
:10C5500001D52D2100E02B2108F8011BCDF82C80FE
:10C5600021E00DF12901761E44F4007488450CD2B7
:10C57000AAF1300010F0FF0088F8000002D10B99FA
:10C58000884509D908F1010806E0E00501D52448ED
:10C5900001E042F20F708146B9696D1C0E98884720
:10C5A00082460F980560002E04DD504604F08DF998
:10C5B0000028D6D1F9690E988847FF208BF8000033
:10C5C00088F800000020069007904B466A4608A9AC
:10C5D00006A8FFF777FEA00502D46FF001002AE756
:10C5E00014F0240F0AD0E00714D1DDE906123868F0
:10C5F000031D3B600068C0E900120BE0DDE90601A5
:10C6000000F0D2F80146E00704D13868021D3A6014
:10C610000068016028460EE7000014400000F03F6B
:10C62000F1D8FFFF2DE9FE4F81EA030404F0004436
:10C6300021F0004100944FF0000B23F0004350EA3A
:10C6400001045ED052EA03045BD0C3F30A54C1F381
:10C650000A552C44A4F2F3340194A0FB0254C1F314
:10C66000130141F48011C3F3130343F4801301FB5E
:10C67000024400FB034E840A970A44EA815447EAC5
:10C680008357A4FB076802958D0A05FB07854FEACF
:10C69000932C04FB0C542705029D4FEA065847EAE9
:10C6A0001637B5EB08056EEB070C870E920E47EABE
:10C6B000811742EA8312A7FB0201B6EB0B0164EB80
:10C6C00000042B0D43EA0C335E1844EB1C50DA4691
:10C6D0005146E7FB0201C5F313044FEA0B3343EA6B
:10C6E00014534FEA0432019C43EA0603A4F10C04FC
:10C6F0000294009CCDE900B400F095F903B0BDE8C8
:10C70000F08F00200146F9E70EB540F23341029167
:10C710000021CDE900110A460B4600F084F903B070
:10C7200000BD00F0004230F000400AD0C10D01F51C
:10C730006071C0F3160042EA0151C208400711437C
:10C74000704700200146704730B5041E71F10004A7
:10C7500004DB4FF00044404264EB0101141E73F10E
:10C76000000405DB1C464FF00043524263EB040318
:10C770008B4208BF824230BD30B5041E71F1000407
:10C7800004DB4FF00044404264EB0101141E73F1DE
:10C79000000405DB1C464FF00043524263EB0403E8
:10C7A000994208BF904230BD01F0004330B421F0FF
:10C7B000004150EA010206D00A0DA2F56072C1F3F1
:10C7C0001301002A02DC30BC00207047440F44EA09
:10C7D000C104C100E01830BC00EBC25000F08AB8C0
:10C7E00030B50B46014600202022012409E021FA41
:10C7F00002F59D4205D303FA02F5491B04FA02F53E
:10C800002844151EA2F10102F1DC30BD2DE9F05FD4
:10C810000546002092469B468846064681464024AF
:10C820001BE0284641464746224600F095FA53460B
:10C830005A46C01A914110D311461846224600F0BC
:10C840007CFA2D1A67EB01084F4622460120002191
:10C8500000F073FA17EB00094E41201EA4F1010409
:10C86000DFDC484631462A464346BDE8F09F3A2879
:10C8700000D2303820F02002412A01D3A2F1370043
:10C88000884201D34FF0FF30704700000268114426
:10C890001378016018467047D1600449516104491A
:10C8A000116200211161114600F07EBA8DC80008A6
:10C8B0009DCD0008426842B1016811F8013B23B1E7
:10C8C000521EC0E90012184670470121C160881E3F
:10C8D000704742685AB1C368016843B983688B42A4
:10C8E00005D0491E521CC0E90012002070474FF0CD
:10C8F000FF3070470029A8BF7047401C490008BF9F
:10C9000020F00100704710B4B0FA80FC00FA0CF07F
:10C9100050EA010404BF10BC704749B1CCF12004B7
:10C9200021FA04F411FA0CF118BF01212143084344
:10C93000A3EB0C01CB1D4FEA00614FEA102042BF70
:10C94000002010BC704700EBC35010440029A4BF66
:10C9500010BC7047401C490008BF20F0010010BC0B
:10C960007047420005D0C0F3C7525242914201DCE9
:10C970000020704700EBC150704710B541000CD04B
:10C98000C0F3C751962908DC7E2909DC06DB410289
:10C9900004D000F0004040F07E5010BD002010BDDB
:10C9A000C1F19604C4F1200100FA01F1E040FFF763
:10C9B000A1FFA04010BDF0B400F0004221F0004102
:10C9C00020F00040CE0DC30DC1F3160141F400016B
:10C9D000C0F316004C42154640F40000761E09E0F4
:10C9E00010EB440002D582F0004240428842F7D862
:10C9F00040005B1EB342F9DA18B1F0BC0021FFF72A
:10CA000082BF2846F0BC704710B5141E73F10004B5
:10CA100008DA401C41F1000192185B411A4301D130
:10CA200020F0010010BD2DE9F04D92469B4611B15A
:10CA3000B1FA81F202E0B0FA80F22032904600F0C2
:10CA40007CF904460F4640EA0A0041EA0B015346CE
:10CA50005A46084313D0114653EA010019D0C8F1D1
:10CA60004002504600F078F905460E4650465946B9
:10CA7000424600F062F9084305D0012004E0204658
:10CA80003946BDE8F08D0020054346EAE0762C43A8
:10CA900037430A986305E40AA0EB08000022FD0A68
:10CAA00044EA47540A3002D500200146E9E701056F
:10CAB00010196941DDE9084500196941BDE8F04DEB
:10CAC000A2E72DE9FE4F804681EA0300C00F0C4625
:10CAD000009021F0004123F00045B8EB0200A9418D
:10CAE00005D24046214690461C460B46024623F09E
:10CAF0000040104347D0270DC7F30A00C3F30A5183
:10CB00000290401A019040286BDAC3F3130040F4FE
:10CB1000801B0098924620B10023D2EB030A63EBFE
:10CB20000B0B01985946C0F14002504600F005F940
:10CB300006460D4650465946019A00F01DF910EB85
:10CB400008006141002487EA115284EAE7731A431E
:10CB500040D0009A62B3019A012A4FEA075215DCCD
:10CB6000001B61EB02014FF0004202EA0752CDE9DF
:10CB70000042001C41F5801132462B46FFF753FF5F
:10CB800003B0BDE8F08F40462146F9E7001B61EB9A
:10CB90000201001C41F5801300185B412018A2F52A
:10CBA000001747EB030140EAD570B6196D4111E05B
:10CBB0006D084FEA360645EAC0754FEA0752001B7A
:10CBC00061EB0201001C41F5801149084FEA300079
:10CBD0000019514132462B4603B0BDE8F04FFFF734
:10CBE00013BF0098012240000023D0EB020263EB48
:10CBF000E073009821464FEAE074B8EB000061EB67
:10CC00000401E9E783F000435BE781F0004158E766
:10CC10002DE9F04D81EA030404F0004B21F00045BA
:10CC200014464FF0000A23F0004150EA050220D0DC
:10CC300054EA01021DD0C5F30A570246C5F3130397
:10CC4000C1F31300C1F30A5640F4801543F4801376
:10CC5000A7EB0608101BD64608F2FD3873EB05005B
:10CC600002D308F1010801E092185B41B8F1000F0E
:10CC700003DA00200146BDE8F08D00204FF480115A
:10CC8000064684460EE0171B73EB050705D3121BFF
:10CC900063EB050306434CEA010C49084FEA3000F8
:10CCA00092185B4150EA0107EDD152EA030012D01D
:10CCB00082EA040083EA0501084305D0101BAB415A
:10CCC00006D20122002306E000224FF0004302E0DA
:10CCD0006FF0010253101AEB06004CEB085110EBF9
:10CCE0000A0041EB0B01BDE8F04DFFF78DBE0EB51C
:10CCF00040F2334202920022CDE900221346FFF7B0
:10CD000092FE03B000BDC1F30A52C1F3130140F219
:10CD1000FF3341F480119A4202DA00200146704745
:10CD200040F233439A42A2F2334202DC524200F014
:10CD300013B800F002B800207047202A04DB203A24
:10CD400000FA02F1002070479140C2F1200320FA5E
:10CD500003F3194390407047202A04DB203A21FA5C
:10CD600002F00021704721FA02F3D040C2F1200204
:10CD70009140084319467047202A06DBCB17203A1A
:10CD800041FA02F043EAE07306E041FA02F3D040D0
:10CD9000C2F120029140084319467047C0B24FF4D7
:10CDA000F05100F099B900002DE9F34F8BB04FF02E
:10CDB000000801F10C000C464FF0010B46460DF146
:10CDC000080A01906269012101989047051E2DD043
:10CDD000252D2CD0216A8847C0B1626901210198B4
:10CDE0009047216A88470028F7D1411E626901985F
:10CDF000904700E0761CA1690B988847216A884714
:10CE00000028F7D1E1690B988847DBE7A1690B9807
:10CE100088470746A84201D1761CD3E7E1690B9801
:10CE200088477F1C02D1B8F1000F6FD047E100277F
:10CE300062693D463946019890472A2804D16269C3
:10CE40000121019890470125DFF88892626901214C
:10CE500001989047A0F130010A290AD24F45E5DC3C
:10CE600007EB870100EB4107303FDFD445F01005A9
:10CE7000ECE7E90601D46FF000476C280AD04C2893
:10CE800014D0682815D06A280DD074281CD07A28B0
:10CE90001AD01DE062690121019890476C2802D0E8
:10CEA00045F0040514E045F002050DE045F02005CD
:10CEB0000AE06269012101989047682802D045F094
:10CEC000080505E045F40065626901210198904775
:10CED000C4E9015765283DD019DC58287AD00CDC0C
:10CEE000452837D004DC252826D0412831D131E02F
:10CEF00046282FD047282CD12CE05B2877D06128FA
:10CF000028D063287CD0642823D15AE0D1E06F2850
:10CF100048D008DC66281DD067281BD0692821D09E
:10CF20006E2816D127E0702845D0732868D0752860
:10CF300047D078280DD14DE0A1690B988847054668
:10CF400025283FF469AFE1690B9888476D1C3FF4D1
:10CF50006AAFB4E023466A466FF001000B99FFF711
:10CF600045FA9FE045F040006060A80723464FF077
:10CF7000000236D43EE0E8077FF447AF2068011D89
:10CF800021600068290501D506701BE7290701D536
:10CF9000068017E7A90703D5F117C0E9006111E77B
:10CFA00006600FE745F040006060A80723464FF099
:10CFB000080216D41EE040F60E0125EA010060606A
:10CFC00016E045F040006060A80723464FF00A02D3
:10CFD00007D40FE045F040006060A80708D523465D
:10CFE00010226FF001000B99AFF300805AE007E0C8
:10CFF000234610226FF001000B99FFF7BDF851E0B6
:10D000004FF000094F464B46632802D05B2807D0FB
:10D0100041E02079C00601D40120A06001273AE058
:10D0200062690121019890475E2805D14FF00109FE
:10D030006269494601989047216939B900210A4639
:10D04000534643F82120491C0829FADBB0B3216973
:10D0500069B9C11700EBD16253110AEB830122F0C9
:10D060001F02821A01200B68904003430B60626923
:10D070000121019890475D28E8D1B9F1000F09D04E
:10D080000020514651F82020D24341F82020401C76
:10D090000828F7DB02AB224600976FF001000B99DE
:10D0A000AFF3008000280CDA401C08D1BBF1000F60
:10D0B00005D04FF0FF300DB0BDE8F08FFFE74046E0
:10D0C000F9E7E90701D108F1010806444FF0000B28
:10D0D00078E60000CCCCCC0C7F2801D9002208E0F7
:10D0E000064A02EB5002C007127800D1120902F082
:10D0F0000F0201209040084070470000E0A902089C
:10D1000070B58C1810F8015B15F0070301D110F809
:10D11000013B2A1106D110F8012B03E010F8016B36
:10D1200001F8016B5B1EF9D12B0705D40023521EB9
:10D130000DD401F8013BFAE710F8013BCB1A921C21
:10D1400003E013F8015B01F8015B521EF9D5A1421F
:10D15000D8D3002070BD6FEA11210160704700290B
:10D16000816814BF41F0010121F001018160704725
:10D17000084AD2F80413084B1940D0E9003C43EAAE
:10D180000C03D0E902C04CEA000018430843C2F87F
:10D190000403704700200140E030FCFF10B501217E
:10D1A000080201F0B5F8BDE8104000214FF480708E
:10D1B00001F0AEB8826822F470221143816070479A
:10D1C000826822F4401211438160704781B00844A4
:10D1D00028300090006801B080B27047012303FA44
:10D1E00001F1002A426814BF114322EA01014160A3
:10D1F0007047000010B44268D1E9003C22F480720C
:10D2000022F0407242EA0C221A43426082680C4BC0
:10D210001A40D1E904C343EA0C03D1E9024C4CEAB9
:10D22000440C43EA0C031A438260C26A097E22F46A
:10D230007002491EC9B242EA0151C16210BC704776
:10D24000FDF7FFC030B4072509290CD9C468A1F146
:10D250000A0C0CEB4C0C05FA0CF5AC4303FA0CF37E
:10D260002343C36009E0046901EB410C05FA0CF5A6
:10D27000AC4303FA0CF323430361836BC3F3015CF8
:10D28000A2EB0C02921C02EB82024FF01F0C0CFA74
:10D2900002FC23EA0C0391401943816330BC7047C0
:10D2A000826B491E22F4401242EA015181637047A9
:10D2B00005490028D1F8040314BF40F4005020F4BD
:10D2C0000050C1F8040370470020014030B4072526
:10D2D00009290CD9C468A1F10A0C0CEB4C0C05FA15
:10D2E0000CF5AC4303FA0CF32343C36009E0046973
:10D2F00001EB410C05FA0CF5AC4303FA0CF32343A4
:10D3000003614FF01F0C072A0CD2436B521E02EB35
:10D3100082020CFA02FC23EA0C0391401943416398
:10D3200030BC70470D2A0CD2036BD21F02EB820275
:10D330000CFA02FC23EA0C0391401943016330BC50
:10D340007047C36A0D3A02EB82020CFA02FC23EA30
:10D350000C0391401943C16230BC70470549002855
:10D36000D1F8040314BF40F4000020F40000C1F819
:10D3700004037047002001402DE9F04F93B0894627
:10D3800082461F469046012102201C9E00F090FF1D
:10D390000121480600F098FF4FF440700D900220E4
:10D3A0000E900125002403201195CDE90F04DFF82C
:10D3B00084B00DA9584600F0C7FE0922082158463E
:10D3C00000F011FF09221146584600F00CFFCDE98C
:10D3D000044506948DF8026002948DF803A08DF840
:10D3E0000480039407948DF80590ADF800706946A9
:10D3F000114800F09BF811488DF82A408DF82B4019
:10D400008DF82C5090F84C00ADF828404001ADF854
:10D4100020004FF6FF70ADF82400ADF82600ADF8FF
:10D42000224008A80C9500F00BF813B00020BDE8CE
:10D43000F08F00000004024000640040E01F002064
:10D4400030B4827A344B012191401A6842F00102D3
:10D450001A60DFF8C8C0DCF800208A43CCF800204E
:10D46000047B2F4AD4B914688C4314604488C5885F
:10D4700044EA0544857AED0005F1804505F5C0458F
:10D48000C5F840460588848845EA0445847AE40066
:10D4900004F1804404F5C044C4F84456047B012CD4
:10D4A00018D114680C431460847A0268E40004F113
:10D4B000804404F5C0444FEA3242C4F84026847ADE
:10D4C0004268E40004F1804404F5C0444FEA32426B
:10D4D000C4F84426C47A134A002C14680CBF8C4349
:10D4E0000C4314600489104A14B914688C43146006
:10D4F0000489012C02D114680C43146000690128CE
:10D5000004D1DCF800000843CCF80000186820F0D3
:10D510000100186030BC7047006600401C66004087
:10D520000C66004004660040146600400368002258
:10D5300023F002030360036843F0010303604FF626
:10D54000FF73D0F804C01CF0010F03D19A4218BF3A
:10D55000521CF6D1426812F0010F5DD08A68012A90
:10D5600002680CBF42F0800222F080020260CA68AA
:10D57000012A02680CBF42F0400222F04002026021
:10D580000A69012A02680CBF42F0200222F0200240
:10D5900002604A69012A02680CBF42F0100222F0C0
:10D5A000100202608A69012A02680CBF42F0080278
:10D5B00022F008020260CA69012A02680CBF42F028
:10D5C000040222F0040202608A7891F803C04FEA54
:10D5D000827242EA0C6291F804C042EA0C4291F86D
:10D5E00005C0098842EA0C52A1F1010142EA010199
:10D5F000C161016821F0010101604FF00001426842
:10D6000012F0010F1CBF9942491CF8D1406810F07C
:10D61000010F04BF012070474FF000007047024621
:10D620000020002908BFD06803D001290CBF106971
:10D63000704700F00300704700EB0113D3F8B0C14E
:10D640001CF0040C82F808C0D3F8B0C107BF4FEA41
:10D650005C5CC2F800C04FEADC0CC2F804C0D3F82E
:10D66000B0C10CF0020C82F809C0D3F8B4C10CF0C0
:10D670000F0C82F80AC0D3F8B4C14FEA1C2C82F810
:10D6800013C0D3F8B8C182F80BC0D3F8B8C14FEAC1
:10D690001C2C82F80CC0D3F8B8C14FEA1C4C82F89D
:10D6A0000DC0D3F8B8C14FEA1C6C82F80EC0D3F895
:10D6B000BCC182F80FC0D3F8BCC14FEA1C2C82F861
:10D6C00010C0D3F8BCC14FEA1C4C82F811C0D3F88B
:10D6D000BC311B0E937421B1016941F0200101613D
:10D6E0007047C16841F02001C160704710B4024624
:10D6F0000020936813F0806F50D002EB0012D2F834
:10D70000803103F00103C2F880310B7A002B54D032
:10D71000D2F880C14C684CEA030391F809C04CEA86
:10D72000C40C43EA0C03C2F880318B7A03F00F0378
:10D730008B72D2F8843123F00F03C2F88431D2F80F
:10D74000843191F80AC043EA0C03C2F88431CB7AE1
:10D7500091F80EC00C7B43EA0C6391F80DC04FEAC0
:10D760000C4C4CEA042C43EA0C03C2F88831CB7B06
:10D7700091F812C043EA0C6391F811C0097C4FEA9A
:10D780000C4C4CEA01211943C2F88C11D2F88011DB
:10D7900041F00101C2F8801110BC7047906810F090
:10D7A000006F18BF0120A8D1906810F0805F14BFEF
:10D7B00002200420A1D110BC7047D2F8803191F82A
:10D7C00009C043EA0C03B1F800C043EA4C53AAE78E
:10D7D0000029016814BF41F0010121F0010101603D
:10D7E000704700002DE9F003016821F0010101609C
:10D7F0000021016041608160C160016121214161BE
:10D80000444A45494FF03D08904202BFC1F80880A4
:10D81000BDE8F0037047414A4FF47464904202BF80
:10D820008C60BDE8F00370473D4A4FF47415904298
:10D8300002BF8D60BDE8F00370473A4A4FF074664E
:10D84000904202BF8E60BDE8F0037047364B374A06
:10D85000984202BFCA60BDE8F0037047DFF8D0C04D
:10D86000344B604502BFCB60BDE8F0037047324FD8
:10D87000DFF8C8C0B84202BFC1F80CC0BDE8F00371
:10D880007047DFF8BC904FF03D57484502BFCF606E
:10D89000BDE8F0037047DFF8AC902B49484502BF64
:10D8A000C1F80080BDE8F0037047DFF8A080404574
:10D8B00002BF0C60BDE8F0037047254CA04202BFD8
:10D8C0000D60BDE8F0037047224CA04202BF0E601D
:10D8D000BDE8F0037047204C2049A04202BF0A6017
:10D8E000BDE8F00370471E4A904202BF0B60BDE8DE
:10D8F000F00370471B4A904202BFC1F800C0BDE868
:10D90000F0037047184A904208BF0F60BDE8F0036B
:10D910007047000010600240006002402860024032
:10D920004060024058600240706002403D000020AC
:10D9300088600240400F0020A060024000003D20AF
:10D94000B86002401064024008640240286402404B
:10D950004064024058640240706402400C6402401B
:10D9600088640240A0640240B864024011F0800F55
:10D9700007D04369002A0CBF23F0800343F08003E3
:10D980004361802908BF704701F01E01002A026828
:10D990000CBF22EA010111430160704710B4026814
:10D9A0001B4BD1F80CC01A400B6843EA0C03D1E9B9
:10D9B00005C44CEA040C43EA0C03D1F81CC043EA4A
:10D9C0000C03D1F820C043EA0C03D1F824C043EA89
:10D9D0000C03D1F828C043EA0C03D1F834C043EA61
:10D9E0000C03D1F838C043EA0C031A4302604269C1
:10D9F000D1E90B3C22F0070243EA0C031A434261CF
:10DA00000A6942604A6882608968C16010BC7047D8
:10DA10003F801CF070B50C4605460CF003F8002260
:10DA2000815CFF2905D02146284600F0B5FA80B276
:10DA300070BD521CB2F5804FF2D3092070BD0000BA
:10DA40000C490A880C49098860B1012810D14EF6AA
:10DA5000EE6009B11AB107E0824207D108E08142C5
:10DA600006D103E022B109B1AB2070470120704715
:10DA70000020704700400008008000082DE9F05F9A
:10DA8000DFF894920024651EB9F80010A34E308888
:10DA90002B0CDFF88C82DFF88CA2A6F1020B002998
:10DAA0007DD0A1F6EE61B1F5604146D001F6EF619F
:10DAB000B1F5005F08D002210820FFF7ABFF09286D
:10DAC00000F0188100F020B9E8B1A0F56E41EE3900
:10DAD0004FF002014FF0080004D0FFF79BFF092828
:10DAE0001BD024E0FFF796FF092818BFBDE8F09F80
:10DAF0000021304600F0C6FA80B2092818BFBDE800
:10DB0000F09F00F006B902210820FFF783FF0928E3
:10DB100018BFBDE8F09F00F0FCB80021484600F0B7
:10DB2000B1FA092803D102211020FFF773FF80B258
:10DB3000092818BFBDE8F09FEBE0A0B198424FF074
:10DB4000020159D11020FFF765FF092818BFBDE871
:10DB5000F09F0021484600F095FA80B2092818BFCE
:10DB6000BDE8F09FD5E0B9F8060038F81470B84267
:10DB700008BF25B2AC4228D001260020FFF760FF85
:10DB8000AB2808BFAB2614D009EB80310BEB8030FB
:10DB90008A1C90420DD90188B94207D100E040E0CB
:10DBA00030F8020CAAF80000002602E0001F9042A4
:10DBB000F1D8012E09D038F81400BAF8001000F09E
:10DBC000DDF8092818BFBDE8F09F601C84B2B4F5E9
:10DBD0009D7FC8D30021484600F054FA80B209283E
:10DBE00018BFBDE8F09F02211020FFF713FF09289E
:10DBF00018BFBDE8F09F8CE00820FFF70BFF092855
:10DC000009D10021484600F03DFA092803D102213C
:10DC10001020FFF7FFFE80B2092818BFBDE8F09F73
:10DC200077E050B198421ED102211020FFF7F2FE9A
:10DC3000092818BFBDE8F09F6BE002210820FFF71C
:10DC4000E9FE092809D10021484600F01BFA0928FD
:10DC500003D102211020FFF7DDFE80B2092818BF92
:10DC6000BDE8F09F55E0F08838F814B0584508BF7B
:10DC700025B2AC4227D001270020FFF7E1FEAB28F8
:10DC800008BFAB2713D0284A09EB803102EB803064
:10DC90008A1C90420BD90188594505D130F8020CF5
:10DCA000AAF80000002702E0001F9042F3D8012FDD
:10DCB00009D038F81400BAF8001000F05FF809280D
:10DCC00018BFBDE8F09F601C84B2B4F59D7FCAD335
:10DCD0000021304600F0D6F980B2092818BFBDE80F
:10DCE000F09F02210820FFF795FE092818BFBDE824
:10DCF000F09F0EE00021484600F0C4F9092803D146
:10DD000002211020FFF786FE80B2092818BFBDE867
:10DD1000F09F0920BDE8F09F004000080080000847
:10DD200028E4002066030020FE7F00082DE9F04172
:10DD300004460E4601250F4F0020FFF781FEAB2859
:10DD400008BFBDE8F08107EB80310B4A02EB80325F
:10DD5000881C82420AD91388A34204D132F8020CEB
:10DD60003080002502E0121F8242F4D82846BDE828
:10DD7000F081000000400008FE7F000870B50546F5
:10DD80000E46124C0120FFF75BFEAB2808BF70BDAA
:10DD900004EB80340E4901EB8030844206D22168C6
:10DDA000B1F1FF3F04D0241D8442F8D3802070BD20
:10DDB0003146204600F066F909281CBF80B270BDCC
:10DDC0002946A01C00F05EF980B270BD004000083A
:10DDD000FE7F00082DE9F84F0C460746FFF7CEFFFF
:10DDE000802818BFBDE8F88F2646DFF8DC800024C5
:10DDF0002046CDF80080FFF723FEAB25012808BFA1
:10DE00004FF0100B08D000281CBF2846BDE8F88F43
:10DE10002E484FF0080B00904EF6EE61009800F08F
:10DE200031F9092802D080B2BDE8F88F3146384672
:10DE3000FFF7A4FF092806BFDFF89490DFF894A04D
:10DE4000BDE8F88F39F81460BE4227D001250020C4
:10DE5000FFF7F6FDAB2808BFAB2513D01E4A08EB31
:10DE6000803102EB80308A1C90420BD90188B1428C
:10DE700005D130F8020CAAF80000002502E0001FCE
:10DE80009042F3D8012D09D039F81400BAF80010E7
:10DE9000FFF774FF092818BFBDE8F88F601C84B233
:10DEA000B4F59D7FCED302215846FFF7B3FD092874
:10DEB00018BFBDE8F88F0021009800F0E3F80928AA
:10DEC000B1D1BDE8F88F00000040000800800008D4
:10DED00028E4002066030020FE7F00080149086056
:10DEE00070470000143C0140034A014600201268BC
:10DEF0000A4218BF01207047143C0140C368214A00
:10DF00000168002B34D0136823EA01011160111D50
:10DF10000A6803689A430A60416801F1804101F58B
:10DF20009E310A6803681A430A60174A1168036839
:10DF300099431160131D1968D0F800C021EA0C0143
:10DF400019608168102908D001F1804101F59E31E6
:10DF50000A6800681043086070471168D0F800C074
:10DF600041EA0C01116019680068084318607047A5
:10DF7000406800F1804000F59E30026822EA01010D
:10DF800001607047003C0140083C014001490860C5
:10DF9000704700000C3C024070B50646002551B1A8
:10DFA000012908BF4FF4807505D002290CBF4FF43A
:10DFB00000754FF4407500F099F8092818BF70BD3E
:10DFC0000F4C206820F440702060206828432060B7
:10DFD000206820F0F8002060206846F00201084325
:10DFE0002060206840F48030206000F07FF82168D5
:10DFF00021F002012160216821F0F801216070BD4B
:10E00000103C02400F4909200A6812F4803F1CBFEF
:10E01000012070470A6812F0100F1CBF06207047DD
:10E020000A6812F4807F1CBF022070470A6812F051
:10E03000E00F1CBF07207047096811F0020F18BFDE
:10E04000082070470C3C024070B50D46064600F0B3
:10E050004DF8092818BF70BD094C206820F44070A5
:10E06000206020682060206840F00100206035704A
:10E0700000F03CF8216821F00101216070BD000032
:10E08000103C024070B50D46064600F02FF80928F6
:10E0900018BF70BD0A4C206820F4407020602068D2
:10E0A00040F480702060206840F0010020603580DE
:10E0B00000F01CF8216821F00101216070BD000012
:10E0C000103C02400548006810F0004F08BF704740
:10E0D000034904480160044901607047103C024054
:10E0E00023016745043C0240AB89EFCD08B5092008
:10E0F0000090FFF787FF009001280CBF114908BD71
:10E1000009200A6812F4803F18BF012016D10A685E
:10E1100012F0100F18BF062010D10A6812F4807F89
:10E1200018BF02200AD10A6812F0E00F18BF0720BA
:10E1300004D10A6812F0020F18BF082000900128CD
:10E14000DED008BD0C3C02402DE9F0010022012682
:10E1500003270B6806FA02FC03EA0C0363453BD174
:10E160000568530007FA03F4A54305604D68D0F82D
:10E1700000809D4045EA080505604D68012D18BFE7
:10E18000022D1AD1856825EA040585608D68D0F8CE
:10E19000088005FA03F545EA08058560456825EA23
:10E1A0000C0CC0F804C0D0F804C08D8905FA02F543
:10E1B000ADB24CEA050CC0F804C0D0F80CC02CEA93
:10E1C000040CC0F80CC0D1F810C00CFA03F3D0F85E
:10E1D0000CC043EA0C03C36002F10102102AB8D359
:10E1E000BDE8F00170474B07DB0E9A40C90800EB11
:10E1F0008100016A4FF00F0C0CFA03F3994301629E
:10E20000016A114301627047002918BF322832BFEA
:10E21000322910467047DFF890C01CF800305B1CB4
:10E22000DBB20CF800308B4224BF00230CF8003026
:10E23000F0B4144600EBC00202EB00131B4A1CF8BA
:10E240000000B2B002EBC3026D4642F8204000204D
:10E25000002907D952F8203045F82030401CC0B2C0
:10E260008142F7D800244F1E002F17DD0A1B002023
:10E27000561E002E0EDD05EB800355F82020D3F846
:10E2800004C06245C4BF45F820C05A60401CC0B2FB
:10E290008642F0DC601CC4B2A742E7DC480855F8AF
:10E2A000200032B0F0BC7047BC510020AC2A0020E6
:10E2B000044A0029116814BF084321EA00001060D5
:10E2C0007047000030380240044A0029116814BF2A
:10E2D000084321EA00001060704700004038024007
:10E2E000044A0029116814BF084321EA00001060A5
:10E2F0007047000020380240044A0029116814BF0A
:10E30000084321EA000010607047000044380240D2
:10E31000044A0029116814BF084321EA0000106074
:10E3200070470000243802400648016821F00101CE
:10E330000160EFF30980683080F30988002080F3E2
:10E340001188704734EF00E08A0721F0030101F1E2
:10E35000804101F59831120F0F23D1F808C893407E
:10E360002CEA0303C1F80838D1F808389040184364
:10E37000C1F80808704710B5202080F3118804F018
:10E38000F5FE002080F31188BDE8104002F040BB8C
:10E390000029016812BF41F080014FF67F721140E1
:10E3A000016070470A884B88B1F806C01A438B8811
:10E3B00043EA0C031A430B891A434B8989891A4390
:10E3C0001143416470470029416812BF41F00101C7
:10E3D0004FF6FE721140416070470123D0F820C013
:10E3E0008B40DB439BB20CEA03030362036A02FA2D
:10E3F00001F189B21943016270470423D0F820C0AB
:10E400008B40DB439BB20CEA03030362036A02FA0C
:10E4100001F189B2194301627047C94389B20161B0
:10E4200070470029016812BF41F001014FF6FE72EA
:10E430001140016070470029416C14BF41F4004154
:10E44000C1F30E014164704710B5A0F18041B1F5F0
:10E4500080314AD0B0F1804F5BD0A0F18041B1F55E
:10E4600080614CD0A0F18041B1F500615BD0A0F19A
:10E470008041B1F5406160D0A0F18041B1F580519B
:10E4800065D0A0F18041B1F5A0516AD0A0F18041E2
:10E49000B1F582316FD0A0F18041B1F5A03174D0D7
:10E4A000A0F18041B1F5A2317AD0A0F18041B1F55F
:10E4B000A4317DD0A0F18041B1F5C05179D0A0F157
:10E4C0008041B1F5E05175D0A0F18041B1F5005126
:10E4D00018BF10BD01210802FFF702FFBDE8104080
:10E4E00000214FF48070FFF7FBBE01210846FFF7C3
:10E4F0000FFF0021BDE810400120FFF709BF0121F7
:10E500000220FFF7EDFE0021BDE810400220FFF7DA
:10E51000E7BE01210846FFF7E3FE0021BDE81040F9
:10E520000120FFF7DDBE01210420FFF7D9FE002105
:10E53000BDE810400420FFF7D3BE01210820FFF7FB
:10E54000CFFE0021BDE810400820FFF7C9BE012121
:10E550001020FFF7C5FE0021BDE810401020FFF796
:10E56000BFBE01212020FFF7BBFE0021BDE8104007
:10E570002020FFF7B5BE01210220FFF7C9FE0021D0
:10E58000BDE810400220FFF7C3BE01210804FFF7D9
:10E59000BFFEBDE8104000214FF48030FFF7B8BE49
:10E5A00001214804FFF7B4FE00214FF4003002E0DF
:10E5B00005E00FE018E0BDE81040FFF7A9BE01211B
:10E5C0008804FFF7A5FEBDE8104000214FF480202D
:10E5D000FFF79EBE01214020FFF782FE0021BDE82B
:10E5E00010404020FFF77CBE01218020FFF778FE1D
:10E5F0000021BDE810408020FFF772BE30B4D0F893
:10E6000008C01FFA8CF5D0F818C01FFA8CF4D0F8A7
:10E6100020C025F00705294324F0030424F44074A6
:10E6200040F201152C434FF6FF751FFA8CFC05EAEA
:10E6300003132CF0220C1A4342EA0C02816084611D
:10E64000026230BC70474161704703690022C068B4
:10E650000B4200EA01001CBF00280122104670474F
:10E66000002AC26811BF1143C94389B21140C16079
:10E67000704710B4026A4FF6FE731A400262026AD3
:10E68000436892B2D0F818C09BB21FFA8CFC0C8879
:10E690002CF0730C44EA0C0C8C8922F00202224309
:10E6A0004C882243A0F18044B4F580341CBFA0F113
:10E6B0008044B4F582340DD1CC8922F00802224383
:10E6C0008C8822F0040222430C8A23F440732343F3
:10E6D0004C8A23434360C0F818C0896841630262D2
:10E6E00010BC7047826992B222F008021143816126
:10E6F000704730B4026A4FF6EF731A400262026A42
:10E70000436892B2D0F818C09BB21FFA8CFC2CF46C
:10E71000E6440D884FF6FF7C0CEA05252C438D89D5
:10E7200022F020020CEA05152A434D880CEA051553
:10E730002A43A0F18045B5F580351CBFA0F1804586
:10E74000B5F5823516D1CD8922F080020CEA051587
:10E750002A438D8822F040020CEA05152A430D8ACF
:10E7600023F440630CEA85052B434D8A0CEA850CA3
:10E770004CEA03034360846189688163026230BCB0
:10E78000704782694FF6FF7392B222F4006203EA87
:10E79000012111438161704730B4026A4FF6FF6373
:10E7A0001A400262026A436892B2D0F81CC09BB25F
:10E7B0001FFA8CFC0C882CF0730C44EA0C048D8935
:10E7C0004FF6FF7C22F400720CEA05252A434D889F
:10E7D0000CEA05252A43A0F18045B5F580351CBF1C
:10E7E000A0F18045B5F5823516D1CD8922F40062BD
:10E7F0000CEA05252A438D8822F480620CEA05255F
:10E800002A430D8A23F440530CEA05152B434D8A05
:10E810000CEA051C4CEA03034360C4618968C163C8
:10E82000026230BC7047C26992B222F00802114302
:10E83000C161704730B4026A4EF6FF731A4002623B
:10E84000026A1FFA82FC4268C36992B20D889BB2C9
:10E850004FF6FF7423F4E64304EA05252B438D8924
:10E860002CF4005C04EA053545EA0C0C4D8804EAFA
:10E87000053545EA0C0CA0F18045B5F580351CBF87
:10E88000A0F18045B5F5823505D10D8A22F480428C
:10E8900004EA851422434260C36189680164C0F8B8
:10E8A00020C030BC7047C2694FF6FF7392B222F4A9
:10E8B000006203EA01211143C1617047826892B28C
:10E8C00022F0700211438160704782684FF67F73B7
:10E8D0001A408260826811438160704710B44FF023
:10E8E000010C046A00F118030CFA01FC6FEA0C0C2D
:10E8F0001FFA8CFC04EA0C0CC0F820C0002918BFD9
:10E90000082914D0A1F10400C0F34E001844016896
:10E9100048F6FF7301EA0301016001684FF6FF73D7
:10E9200003EA022241EA0201016010BC704703EBD6
:10E93000510001684FF68F7301EA0301016001681D
:10E9400041EA0201016010BC704742684FF68F73C4
:10E950001A404260426811434160704782684FF636
:10E96000F8731A4082608268114381607047C16207
:10E970007047000010B40268DFF874C01D4B92B2FB
:10E98000604518BF984211D0B0F1804F1CBFA0F174
:10E990008044B4F5806409D0A0F18044B4F50064EB
:10E9A0001CBFA0F18044B4F5406403D14C8822F030
:10E9B00070022243A0F18044B4F580541CBFA0F142
:10E9C0008044B4F5A05403D00C8922F44072224351
:10E9D00002604A68C2620A888262604512BF984239
:10E9E000897A01634FF00101416110BC704700005A
:10E9F0000000014000040140084810B5006800F024
:10EA00003D01074801600748026C002A1CBF406CAA
:10EA10009047BDE8104001F0FBBF000000640240D9
:10EA20000864024030870020094810B500683D2185
:10EA3000084A01EA9011880110600748826C002A98
:10EA40001CBFC06C9047BDE8104001F0E1BF000062
:10EA5000006402400864024030870020094810B575
:10EA600000683D21084A01EA104108041060074887
:10EA7000026D002A1CBF406D9047BDE8104001F0B8
:10EA8000C7BF0000006402400864024030870020D5
:10EA9000094810B500683D21084A01EA90518805EF
:10EAA00010600748826D002A1CBFC06D9047BDE80A
:10EAB000104001F0ADBF0000006402400864024055
:10EAC00030870020084810B5006800F03D01074875
:10EAD00001600748026E002A1CBF406E9047BDE8E7
:10EAE000104001F095BF0000046402400C64024035
:10EAF0003087002070B53B4E346D6069A16901EA32
:10EB00000005656115F4805F08D0304602F0C1FC55
:10EB10007068026812B100213046904715F4005F1A
:10EB200018BFD4F8080815F0080F05D07068C16840
:10EB300000291CBF3046884715F0100F0ED020204A
:10EB400080F31188A06920F01000A06106F1600038
:10EB5000002104F022FC002080F31188D4F818482A
:10EB600015F4802F1BD014F0010F03D00021304684
:10EB700012F0F7FC14F0020F03D00121304612F01E
:10EB8000F0FC14F0040F03D00221304612F0E9FC2F
:10EB900014F0080F03D00321304612F0E2FC15F404
:10EBA000002F1BD014F4803F03D00021304612F018
:10EBB00059FD14F4003F03D00121304612F052FDFC
:10EBC00014F4802F03D00221304612F04BFD14F4D0
:10EBD000002F03D00321304612F044FDBDE8704001
:10EBE00001F016BF18880020094810B500683D21C3
:10EBF000084A01EA9011880110600748826E002AD5
:10EC00001CBFC06E9047BDE8104001F001BF00007E
:10EC1000046402400C64024030870020094810B5AB
:10EC200000683D21084A01EA1041080410600748C5
:10EC3000026F002A1CBF406F9047BDE8104001F0F2
:10EC4000E7BE0000046402400C64024030870020EC
:10EC5000094810B500683D21084A01EA905188052D
:10EC600010600748826F002A1CBFC06F9047BDE844
:10EC7000104001F0CDBE0000046402400C6402406C
:10EC8000308700202DE9F041204E3469E768206884
:10EC900085B2606825F46F6030F4704020D06FF466
:10ECA00080702060F0680269D2B1002115F0080F71
:10ECB00018BF102115F0010F18BF41F0040115F025
:10ECC000020F18BF41F0080115F0040F18BF41F002
:10ECD000200115F4807F18BF41F040013046904775
:10ECE00015F0400F18BF17F0400F0BD06FF0400029
:10ECF000206027F04000E060F068416800291CBFF8
:10ED000030468847BDE8F04101F082BEF48A002019
:10ED1000074810B5016801F03D01816005480268AF
:10ED2000002A1CBF40689047BDE8104001F070BE4B
:10ED30000060024030870020084810B501683D227D
:10ED400002EA91118A01826005488268002A1CBF8C
:10ED5000C0689047BDE8104001F05ABE0060024014
:10ED600030870020084810B501683D2202EA1141B1
:10ED70000A04826005480269002A1CBF4069904766
:10ED8000BDE8104001F044BE006002403087002022
:10ED9000084810B501683D2202EA91518A05826057
:10EDA00005488269002A1CBFC0699047BDE8104031
:10EDB00001F02EBE0060024030870020074810B5E9
:10EDC000416801F03D01C1600548026A002A1CBF8C
:10EDD000406A9047BDE8104001F01ABE0060024052
:10EDE00030870020084810B541683D2202EA9111A1
:10EDF0008A01C2600548826A002A1CBFC06A904727
:10EE0000BDE8104001F004BE0060024030870020E1
:10EE1000084810B541683D2202EA11410A04C26067
:10EE20000548026B002A1CBF406B9047BDE81040AC
:10EE300001F0EEBD006002403087002010B540F2C6
:10EE400007410448FEF787F90BF014FFBDE81040B6
:10EE500001F0DEBD0020014010B50C4C0C48E16A09
:10EE60008860202080F3118804F10800002104F05C
:10EE70001CFA04F11C00012103F078FD002080F34E
:10EE80001188BDE8104001F0C3BD0000B08700202C
:10EE9000010101002DE9F041164CE06AC5684FF010
:10EEA000000615F0030F4FF0200711D0416921F043
:10EEB0000201416187F3118804F11000002104F080
:10EEC000F4F904F11800012103F050FD86F31188D4
:10EED00015F0100F0AD0E06A1021C16087F3118885
:10EEE00004F1200003F042FD86F31188BDE8F041F3
:10EEF00001F08EBDB08700202DE9F041164CE06A8C
:10EF000005694FF0000615F0030F4FF0200711D0F0
:10EF1000416921F01001416187F3118804F110006B
:10EF2000002104F0C2F904F11800022103F01EFDD3
:10EF300086F3118815F0100F0AD0E06A10210161E4
:10EF400087F3118804F1200003F010FD86F3118887
:10EF5000BDE8F04101F05CBDB08700202DE9F04133
:10EF60001C4CE06A45681C21416015F0080F4FF009
:10EF700000064FF020070FD003202060E06A0168F0
:10EF800021F00201016087F3118804F128000021BB
:10EF900003F0ECFC86F3118815F0040F16D0E06A3C
:10EFA0008169826922F07002826101F0070211F02A
:10EFB000700F18BF42F0080287F3118804F1200097
:10EFC00042EA014103F0D2FC86F31188BDE8F0412A
:10EFD00001F01EBDB087002010B54FF48070FEF721
:10EFE00083FF002808BF10BD0AF042FABDE81040B8
:10EFF0004FF48070FEF772BF10B5084C0121204617
:10F00000FFF723FB002808BF10BD0AF07BFA20465B
:10F01000BDE810400121FFF700BA000000040040E5
:10F0200070B5244CE0680169C268C9B202EA010502
:10F03000E943016160680426416931B115F0020FAE
:10F040001FD02168042917D01BE015F0040F07D04A
:10F050002168042904D1816800291CBF2046884703
:10F0600015F0020F18D02068042814D16068C16818
:10F0700089B1204688470EE0816800291CBF2046E0
:10F08000884715F0040F07D02068042803D1606872
:10F09000C1680029EDD1266015F0010F05D0606828
:10F0A00001692046884703202060BDE8704001F0D8
:10F0B000AFBC0000DC8A002070B53C48446BA169FD
:10F0C0006569DFF8ECC045EA014121F07F42014665
:10F0D000A2EB0C03098C624508BFC1F347001AD0AC
:10F0E00006DC6FF44033D21809D0012A15D055E060
:10F0F000A3F580227A3A28D0022A31D04EE0080ABD
:10F1000008BF21614AD0062202EA112001F0010164
:10F11000084340F0F000206140E0616821F4007194
:10F120006160C16A09680A6842F001020A606168A8
:10F1300041F480516160C06A0068406802282DD2A5
:10F14000206820F48060206028E0616821F400716C
:10F150006160006B0068016841F0010101601DE021
:10F16000C26A126852683AB141F001010184206814
:10F1700040F4A060206015E0616821F400716160D6
:10F18000216841F400712160202181F31188002160
:10F190001C3004F002F9002080F3118815F00A0FEA
:10F1A00018BFA069BDE8704001F032BCE0870020C4
:10F1B000080003003F4810B5406B416989B201F473
:10F1C0005F42D24342613B48026B1268136823F0EE
:10F1D0001F031360D0F830C0DCF80020136813F070
:10F1E000010FFBD19CF80820DCF804303D2404FA20
:10F1F00002F21A60C26A1268136823F01F031360D8
:10F20000D0F82CC0DCF80020136813F0010FFBD1FC
:10F210009CF80820DCF8043004FA02F21A6000249A
:10F2200011F4807F84601CBF0122826011F4007F92
:10F2300003D0826842F00202826011F4806F0DD028
:10F24000426B536823F400735360426B136843F4BA
:10F2500000731360826842F00402826011F4006F50
:10F2600003D0826842F00802826011F4804F03D01C
:10F27000826842F02002826011F4805F03D08268CD
:10F2800042F01002826011F4004F81681CBF41F00F
:10F290004001816049B1202181F311886FF00101A3
:10F2A0001C3004F07AF884F31188BDE8104001F0B6
:10F2B000AFBB0000E087002010B5084C02212046BB
:10F2C000FFF7C3F9002808BF10BD10F0DBFF204690
:10F2D000BDE810400221FFF7A0B800000004014083
:10F2E000084810B541683D2202EA91518A05C26082
:10F2F0000548826B002A1CBFC06B9047BDE81040D8
:10F3000001F086BB006002403087002010B501216B
:10F31000C802FEF7E5FFBDE8104000214FF4006091
:10F32000FEF7DEBF024940F0800008607047000031
:10F33000002C0040024900F07F0008607047000088
:10F34000002C0040034A116821F4C071084310608A
:10F3500070470000042C0040054981B00A6800F0A5
:10F360007F0022F07F0210430090086001B07047D8
:10F37000042C00407CB50C001D461646014601D009
:10F38000601E00E00020CDE90010064B6A462946C9
:10F39000304601F069FB002C02D0009A0021117068
:10F3A0007CBD0000851101084100080218BF04203F
:10F3B0000A0E18BF40F001004FF07F4232EA01010F
:10F3C00008BF40F00200012808BF0520704715F073
:10F3D00005BE000010B54FF00E402DED028BB0EED3
:10F3E000408A18EE104A00EB4400B0F1506F4AD842
:10F3F0004FF0FC40B0EB440F22D2B0EEC80AF7EE5B
:10F40000000A30EEC00AF6EE000A60EE208A18EE1E
:10F41000900A15F07DFD01EE100A14F0004F1DBF9B
:10F42000DFED2D0A9FED2D0AB1EE411ADFED2C0A1A
:10F4300008BF9FED2C0AF8EE001A21EE218A05E0A4
:10F44000DFED290A68EE088AB0EE600A9FED271A00
:10F45000DFED271A30EE080A48EE811A9FED251AD3
:10F4600008EEA11ADFED241A48EE811A9FED231A47
:10F4700008EEA11A68EE281ABDEC028B01EE810A93
:10F4800030EE200A10BD4FF0E440B0EB440F0CD931
:10F4900018EE100AFFF788FF042808BF01F07AF879
:10F4A000B0EE480ABDEC028B10BD4FF07F40B0EBD0
:10F4B000440F07D2B0EE480ABDEC028BBDE8104005
:10F4C00001F052B8012001F017F9BDEC028BBDE844
:10F4D000104001F04FB800000000C9BF22AAFDB9DA
:10F4E0000000C93F22AAFD390000000024FE1C3D97
:10F4F000C78AD83C1E67383D1B93993DAFAA2A3E68
:10F5000070B54FF068422DED048BF0EE408A18EE96
:10F51000900AB0EE608A18EE101A02EB4003B3F1C5
:10F52000654F3CBF02EB4102B2F1654F7DD200BF97
:10F53000C0F3C753C1F3C7529A1A1B2A09DD10F052
:10F54000004F14BF9FED830A9FED830ABDEC048B2F
:10F5500070BD12F11A0F36DA11F0004F09D010F019
:10F56000004F0CBF9FED7D0A9FED7D0ABDEC048B23
:10F5700070BD88EE889A19EE100AFFF715FF04286F
:10F5800008BF01F007F818EE900AFFF70DFF0546D7
:10F5900018EE100AFFF708FF044619EE100AFFF7ED
:10F5A00003FF042D18BF052D08D1042C18BF052C0E
:10F5B00004D1002804BF022001F09EF8B0EE490AF1
:10F5C000BDEC048B70BD4200B2EB410F3AD910F094
:10F5D000004F19BFDFED630A9FED630ADFED630A99
:10F5E0009FED630AB0EE481A0A46B1EE688A80F0D1
:10F5F0000041F0EE418A10460A1A5200B2F1807FB3
:10F6000034D2484010F0004FDFED5A1A9FED5A2ACD
:10F610001DBFBEEE001A70EEE10A30EE420AB6EEF1
:10F62000001A08BF70EEA10A00E040E008BF30EE0B
:10F63000020AB0EE682A01EE482A08EE818AC2EE7C
:10F64000081A15E011F0004F04BF9FED4C0AF0EED0
:10F65000400AD1D010F0004F19BFDFED490A9FEDED
:10F66000490ADFED490A9FED490AC5E7C8EE881A45
:10F6700021EEA11A9FED462ADFED462A41EE022A2D
:10F680009FED452A01EE222ADFED442A41EE022AAF
:10F690009FED432ABDEC048B01EE222A21EE811A54
:10F6A00001EE020A30EE210A30EE200A70BD4FF062
:10F6B0007F42B2EB400F28BFB2EB410F09D2F0EE10
:10F6C000480AB0EE680ABDEC048BBDE8704000F05B
:10F6D0004EBF40EA01035B0008BF41F0FF410BD081
:10F6E000B2EB400F08BFB2EB410F08D120F08040D1
:10F6F00008EE900A21F0804108EE101A18E7B2EBEC
:10F70000400F12BF5FEA410340F0FF4001F00041AB
:10F710003FF40EAFB2EB410F12BF5FEA400200F0C0
:10F72000004041F0FF413FF403AF4A0092EA40033A
:10F730003FF5FEAE002AACBF9FED1A0A9FED1A0AF4
:10F7400068EE808A28EE008A18EE900A18EE101AE9
:10F75000EEE60000DB0FC9BFDB0FC93FDB0F4940FE
:10F76000DB0F49C00000C9BF22AAFDB90000C93F94
:10F7700022AAFD390060ED3EC30ACE37000000002A
:10F78000000049C022AA7DBA0000494022AA7D3A61
:10F790002DAD65BD8FB8D53D0FB511BE61C84C3ECE
:10F7A000A8AAAABE0000804F0000802F10EE101AF9
:10F7B00008B5444A6846B2EB410F28D94FF0E640FD
:10F7C000B0EB410F94BF00204FF0FF300090009845
:10F7D000002861DB60EE000A10F0010F45D010F048
:10F7E000020FDFED391A9FED391A00EEE11ADFED55
:10F7F000381A40EE811A21EEA01AF0EE400A40EECF
:10F80000010A08BFF1EE600AB0EE600A08BD314B94
:10F8100021F0004293423CD911F0004FDFED2E0A57
:10F8200020EE201ADFED2D0A19BF31EE601A71EEBD
:10F83000200A31EE201A71EE600ABDEEE01A11EED8
:10F84000100A9FED271A00F0030000EEC10A9FED99
:10F85000251A009000EEC10A9FED231A00EEC10A9E
:10F860009FED221A00EEC10AB1E79FED211A9FED2C
:10F87000210A10F0020F00EE810A9FED1F1A00EE20
:10F88000801AB7EE000A00EE810A18BFB1EE400AF6
:10F8900008BD00F087FE9AE710EE100A4000B0F1B4
:10F8A0007F4F3CBFB7EE000A08BD07D14FF0010003
:10F8B00000F022FFBDE8084000F05CBEBDE8084053
:10F8C00000F052BEB61F927E336D4C39DA82083C8E
:10F8D000A0AA2ABE490E494683F9223F0000004BE8
:10F8E0000000C93F00A0FD390020A2331A61342C6A
:10F8F000B93AB2BACA9F2A3DDDFFFFBE10B510EE7D
:10F90000104A4FF019406849002200EB44002DEDE9
:10F91000028B884257D8DFED650A14F0004F60EE85
:10F92000200A14BFBEEE001AB6EE001A71EE200ACD
:10F93000FDEEE00A10EE900A00EE900AF8EEE00A02
:10F940009FED5B1A00EEC10A9FED5A1A00EEC10A44
:10F95000DFED590A9FED591A00EE201ADFED580A23
:10F9600040EE010A9FED571A574B00F0030100EEDD
:10F97000201A21EE000A7B4403EB8103D3ED000A39
:10F98000524B7B4403EB810393ED001A504B41EE45
:10F99000000A7B4403EB8101801091ED000A70EEB8
:10F9A000800AEABB00EE100AB8EEC01ADFED491A71
:10F9B0009FED490ABDEC028B01EE210ABCEEC00AA4
:10F9C00020EE200A10BD4FF0FF40A0431BD04FF0A7
:10F9D000CE40B0EB440F82BFB7EE000ABDEC028B05
:10F9E00010BD3E48B0EB440F28BF012293D2022045
:10F9F00000F082FE14F0004F15D0BDEC028BBDE884
:10FA0000104000F0C7BD14F5000F02BF9FED340A8F
:10FA1000BDEC028B10BDBDEC028BBDE8104000E0D8
:10FA200007E000F0A1BDBDEC028BBDE8104000F086
:10FA3000A9BD00EBD07359104FF07E5202EBC151BB
:10FA400000EE101AA0EB630002EBC05060EE200A3B
:10FA500000EE100A20EE208A18EE100A88B118EE87
:10FA6000100AB0F1FF4F15D018EE100AFFF79CFCFA
:10FA7000042808BF00F08EFDB0EE480ABDEC028BF2
:10FA800010BD022000F038FEBDEC028BBDE8104036
:10FA900000F080BD022000F02FFEBDEC028BBDE81F
:10FAA000104000F06FBD00000000501E3BAAB8409F
:10FAB0000070313EF4FD053712BB2A3D12BB2A3ED1
:10FAC000FFFFFF3EFFFF7F3FA6AE0100AAAE010091
:10FAD0007AAE01000000004B00007E4E0000A085C1
:10FAE0000000000010EE100AC0F3C7517F3917293B
:10FAF000A8BF7047DFED140A002970EE200A0DDA66
:10FB0000F5EEC00AF1EE10FA1ADD0028A8BF0020B9
:10FB100016DAB0F1004F18BF0C4811E00C4ACA4089
:10FB2000104208BF7047F5EEC00AF1EE10FA07DD8B
:10FB3000002804DA4FF4000323FA01F1084490434B
:10FB400000EE100A70470000CAF24971000080BF41
:10FB5000FFFF7F0010B52DED028BF0EE408A18EE0E
:10FB6000900AB0EE608A20F00040C0F1FF40C00F64
:10FB700007D118EE100A20F00040C0F1FF40C00F7E
:10FB80002BD018EE101A18EE900AFCF714FF00EEB6
:10FB9000100A10EE100A6FEAD05010F0FF0F04BFE9
:10FBA000BDEC028B10BD18EE900A00F0004110EE83
:10FBB000100A00F00040814204BFBDEC028B10BD72
:10FBC00018EE101A10EE100ABDEC028B61F31E0045
:10FBD00000EE900A30EE600A10BD18EE900A4FF069
:10FBE0007F41B1EB400F1CBF18EE100A5FEA4000E6
:10FBF000C7D1012000F080FDBDEC028BBDE81040B4
:10FC000000F0B8BC10EE101A0023036021F000428F
:10FC1000B2F1FF4FA8BF7047002A08BF7047B2F586
:10FC2000000F0ADA6FF01603DFED0A0A036020EE18
:10FC3000200A10EE101A21F000426FF07D0C0CEB40
:10FC4000E2521A44026021F0FF4040F07C5000EE86
:10FC5000100A70470000004B10EE102A6FEAD252D3
:10FC600012F0FF0F1ABFB5EEC00AF1EE10FA70479E
:10FC700010B501462DED028B10EE100AFCF771FE57
:10FC800008EE100A18EE100A6FEAD05010F0FF0FBD
:10FC900019D0B5EEC08AF1EE10FA1EBFB0EE480AD8
:10FCA000BDEC028B10BD022000F026FD00F072FCBE
:10FCB00010EE101A18EE100ABDEC028B61F31E0054
:10FCC00000EE100A10BD022000F016FD00F05AFCF4
:10FCD00010EE101A18EE100ABDEC028B61F31E0034
:10FCE00000EE100A10BD000010EE100A10B500233F
:10FCF000A0F50001B1F1FE4F67D200BF00F5002171
:10FD00006FF07E0202EBE15CC1F302524FF07E51D4
:10FD100001EB025100EE901AA0EBCC5003EB0C016A
:10FD200000EE100A51EA020036D030EE601A70EE92
:10FD3000200A9FED3D2A3E4881EE200A9FED3B1AA6
:10FD400060EE000A00EE821A60EE201A61EE810A6F
:10FD5000784401EE101A00EB82009FED362AB8EECF
:10FD6000C11AD0ED001A344841EE021A784401EE6F
:10FD7000101A00EB8200B8EEC11A90ED002ADFEDF8
:10FD80002F2A01EE222AB0EE001A72EE200A40EE6F
:10FD9000010A31EEA00A10BDF7EE000A9FED291A04
:10FDA00030EE600ADFED260A00EE201ADFED260AAB
:10FDB00060EE001A40EE010A9FED241A00EE201AB0
:10FDC00061EE810A30EE200A10BD4FF07F41B1EBA9
:10FDD000400F03D2BDE8104000F0C6BBB0F1FF4FAA
:10FDE00008BF10BDB5EEC00AF1EE10FA06D2012030
:10FDF00000F082FCBDE8104000F0BCBBB5EEC00ACC
:10FE0000F1EE10FA07D1022000F076FC00F0A2FB20
:10FE1000B1EE400A10BDDFED0E0A6FF0160320EEC2
:10FE2000200A10EE100A69E766F1CC3EAAAA2A3F22
:10FE3000ECAA01000070313FF0AA0100F4FD053882
:10FE400021ED423E0A1180BEC1ABAA3EFFFFFFBEBC
:10FE50000000004B10B510EE100A2DED068BB7EE2A
:10FE6000001A10EE901AB0EE418A0022A0F5000CA4
:10FE7000DFEDFE9A4FF00073BCF1FE4F4FF07F4470
:10FE800003EB410C80F0B481BCF1804FC0F02082C4
:10FE9000F74901449FEDF73AB1F5005F40F2D48293
:10FEA00000F58021CB0C03F00F0101EE901AC3F393
:10FEB00007137F3BA0EBC350B8EEE12A00EE100A17
:10FEC0001A44DFEDED2AF0EE411A42EE221AF0EE6E
:10FED000613A70EE232A30EE632A12EE900A00F5A2
:10FEE00000606FF30B0001EE900A73EEE13A33EE1F
:10FEF000804AC1EE223A22EE230A10EE100A00F5E3
:10FF000000606FF30B0000EE100A00EE612A00EEB5
:10FF1000442A62EE232A70EE221A21EEA12ADFED96
:10FF2000D73A02EE233A23EE023A20EE012A22EEDD
:10FF3000811A03EE211A32EE010A10EE100A00F5C2
:10FF400000606FF30B0000EE100A72EE401A31EE03
:10FF5000812A9FEDCB1A60EE011A9FEDCA1A20EE9E
:10FF6000011A9FEDC90A02EE001A31EE810A10EE65
:10FF7000100A00F500606FF30B0000EE100AC34892
:10FF800071EEC01A31EE812A784400EBC10090ED89
:10FF9000003AD0ED011A100101EE100AF8EEC12A64
:10FFA00032EE211A31EE001A31EE031A31EE221A26
:10FFB00011EE100A00F500606FF30B0009EE100A55
:10FFC00039EE621A31EE431A31EE400A30EE610A20
:10FFD00032EE40AA10EE900A002100F500606FF3A7
:10FFE0000B0008EE900A084670EEE8AAFCF7A3FEA4
:10FFF00029EE280A00F00C01F0EEC00A10EE900A7B
:020000040801F1
:10000000B0F18B4F0DDD10EE900AB4EB400F08D32A
:1000100010EE100A4FF08B4262F31E0008EE900AB9
:1000200013E069EE2A0A38EEAA1A4AEE010A30EE07
:10003000201A11EE100A00F500606FF30B0008EEB5
:10004000900A30EE680A70EE209A0C20FCF773FEDE
:1000500038EEA90AB5EEC00AF1EE10FA34BFFEEE92
:10006000000AF6EE000A30EE800ABDEEC00A10EE7D
:10007000100A011100EE101AF8EEC00A00EE100A84
:10008000B8EEC00A38EEC00A30EE290ADFED801A59
:100090009FED801A00EE211ADFED7F1A7F4900F0F4
:1000A0000F0040EE011A21EE800A794401EB800135
:1000B00091ED001A7A49794401EB8001D1ED001AE3
:1000C000784901EE801A794401EB8000764990ED81
:1000D000000A31EE001AB0EEE00A10EE100A884273
:1000E00015DA10EE100AB4EB400F10D39FED6F0A33
:1000F00030EE800ADFED6E0A20EE200A68EE010A7B
:10010000BDEC068BBCEEC00A20EE200A10BD10EE3E
:10011000100A6849884243DA10EE100AB4EB400F27
:100120003ED3BDEEE00A68EE010A10EE100A00EBC5
:10013000D0725110C90501F17E5100EE101AA0EBEA
:100140006200C00560EE200A00F17E5000EE100A49
:1001500060EE808A18EE900AB4EB400F0FD10220B7
:1001600000F0CAFA00F00EFA10EE101A18EE100A9B
:10017000BDEC068B61F31E0000EE100A10BD18EEF8
:10018000900A400011D018EE900AFFF70DF90428EC
:1001900008BF00F0FFF9B0EE680ABDEC068B10BD99
:1001A000F5EEC00AF1EE10FA0FD2022000F0A4FA28
:1001B00000F0F0F910EE101A18EE100ABDEC068BE4
:1001C00061F31E0000EE100A10BD022000F094FA48
:1001D00000F0D8F910EE101AB0EE480A10EE100A2E
:1001E000BDEC068B61F31E0000EE100A10BD00BFCF
:1001F000BCF1804F6CD300BF00F1FF43B3F1FE4F61
:1002000024D200BFB0EEC00A10EE100AC1F3C753EB
:100210007F2B0DDB972BBFF63BAEC3F196034FF060
:10022000010C0CFA03F3A3F1010C1CEA010F08D036
:10023000012000F061FABDEC068BBDE8104000F033
:1002400099B90B4218BFBFEE008A21E643001CBFDC
:100250004FF08073B3EB400F34D96FF01A02DFED2B
:10026000161A20EE210A10EE100A27E00000000006
:10027000001080C0ABAAAA3E0000803D7EE24C3E4A
:1002800000B03842D49AB8BB3BAA3842F4A8010067
:10029000FC596337C9FF753A1872313D92A80100C5
:1002A000C6A8010036A801000000FC420000FE4282
:1002B0000000004B000040430000004D10F0004FD4
:1002C000A0D1E5E5A0F50003B3F1FE4F21D2DFE5B3
:1002D00003EB4103B3F1007F11D3F5EEC00AF1EE59
:1002E00010FA05D1430018BFB4EB400F76D883E76E
:1002F00001F0004141F0FC5100EE901A7CE7B3F1AF
:10030000807F06D210EE903AA3F5000300EE903AFB
:1003100072E720F000426FF0FF4C604C02EB0C03E0
:10032000A34210D321F000439C44A4450BD3B0F169
:100330007E5F18BF5FEA410C50D0B2F1FF4F98BF0B
:10034000B3F1FF4F05D9BDEC068BBDE8104000F0BE
:100350000EB9B0F1FF4F0FD0C1F3C7527F2A09DBAE
:10036000972A11DAC2F19602012303FA02F2531E10
:100370000B4205D0002208E011F0004F55D128E0D3
:100380000A4218BF012200D1022210F5000F13D03B
:1003900028B3B0F1004F26D010F1814F4FD04FF06D
:1003A000FE42B2EB400F94BF01200020012202EB7D
:1003B000E171884239D10CE011F0004F02D0012ADE
:1003C00038D032E0012A02BF9FED350ABDEC068B22
:1003D00010BD9FED340ABDEC068B10BD2FE011F06F
:1003E000004F0CD121E0B1F1FF4F1ED011F5000FED
:1003F00005D011F0004F15D00AB1012A08D0022013
:1004000000F07AF9BDEC068BBDE8104000F0A2B810
:10041000022000F071F900F09DF8BDEC068BB1EE02
:10042000400A10BD0AB1012A04D0B0EE690ABDEC41
:10043000068B10BDBDEC068B9FED1B0A10BDBDECFD
:10044000068BB7EE000A10BD30EE410AB5EE001A79
:100450009FED172A00EE413AB6EE001A60EE001A40
:1004600000EE431A61EEC11A9FED101A20EE011A38
:1004700020EE020A9FED0F2A01EE820A71EE001AA9
:1004800011EE900A00F500606FF30B0009EE100A00
:1004900031EE491A31EE00AA9CE50000FFFF3F0053
:1004A000000080FF0000807F0000008000B0B841A5
:1004B000D49A38BB3BAAB84110B52DED028BB0EEF3
:1004C000408A18EE100AFCF758FA01EE100A18EEEE
:1004D000100AB7EE000A78EE410A10F0004F4FF014
:1004E0007F4010EE901A12D0B1F13F4F24BF10EEB2
:1004F000901AB0EB410F12D210EE901AB1F17C5F5E
:100500001CDD10EE901AB0EB410F17D314E0B1F1DF
:100510003F4F07D910EE901AB0EB410F02D331EEE6
:10052000401A0BE010EE901AB1F17C5F06DB10EE82
:10053000901AB0EB410F01D331EE001A18EE100AF9
:10054000BDEC028B11EE101A61F31E0000EE100AD2
:1005500010BD0000DFED030AB7EE001A81EE200A9D
:10056000704700000000000030EE000A704730EED7
:10057000200A7047DFED020A80EEA00A70470000F3
:10058000000000009FED020A20EE000A7047000004
:10059000000000709FED020A20EE000A7047000084
:1005A000000000102DE9F0014FF07F42B2EB410F47
:1005B0009FBF4FF0FF310160BDE8F00170474FF081
:1005C000004242EA0123C1F3C752783A551112F0B2
:1005D0001F0C434CCCF120067C44C1F3C752A2F15E
:1005E00078024FEA621204EB820254F8254008BFF9
:1005F000D2E9015612D0556804FA0CF425FA06F730
:100600003C43976805FA0CF527FA06F8D26807FA12
:100610000CFCF24045EA08054CEA0206A4FB034C38
:10062000A5FB0352A6FB03631D449D4234BF012674
:1006300000261319334416B1934202D903E09342C2
:1006400001D2012200E00022624402F1200C920655
:10065000DC0C42EA443200EE102A5B03DFED210A93
:10066000F8EEC01A00EE103A4FEA9C1C11F0004F51
:10067000B8EE400AC0F800C020EE201A00EE105A72
:10068000DFED190AB8EE400A20EE200A71EE810A69
:1006900070EE800A10EE902A02F500626FF30B02F2
:1006A00000EE902A70EEE11A31EEC11ADFED101A59
:1006B00030EE411A9FED0D0A20EE800A01EE210A6C
:1006C0009FED0C1A00EE810A04BFBDE8F0017047EF
:1006D000CCF180510160BDE8F001B1EE400A7047F5
:1006E000E4A30100000000360000802C22AAFD29AE
:1006F000DB0FC92F0000C92F0149086070470000B7
:1007000008050020044820F007010448016004495E
:1007100021F0070141607047474301200C0300208E
:10072000000002202DE9FF5F82B00021DDE90430E6
:10073000020DDDF840B0034318D044F61050A2F289
:10074000FF3242431514119801281FD0A5EB0B006E
:10075000401C5FEA000A4FF000064E4FDFF8389168
:10076000B046504615D5CAF1000413E01198012493
:100770004AA3012801D16FEA0B010298119AC0E93E
:100780000031C0E9024206B0BDE8F09FCBF10000A5
:10079000DFE704460021404A491842EB0450CDE906
:1007A000001012E0E00707D032463B46404649467B
:1007B000FBF738FF8046894632463B4610461946CD
:1007C000FBF730FF06460F466410002CEAD1DDE946
:1007D0000401DDE90023BAF1000F06DAFBF722FF7E
:1007E00042464B46FBF71EFF05E0FCF711FA424676
:1007F0004B46FCF70DFA04460E460022284BFBF749
:10080000BBFF03D84FF0FF30014607E00022254B25
:1008100020463146FCF755F9FCF775FA102409E03B
:10082000002C0ADB0A220023FBF7F0FF039B303287
:100830001A55641E50EA0102F2D1641C039AC4F1F5
:1008400011031444119A012A03D0012208430DD147
:100850000AE0084304D000204FF0110B119072E71A
:10086000A3EB0B056D1E0DE05B4504DD4FF00002B0
:1008700005F1010504E003DA4FF00002A5F10105DE
:10088000002AECD002981199C0E90231C0E9004574
:1008900079E70000000014400000F03F3000000045
:1008A0000000F0430000E03F0648054940F8081BFF
:1008B000002140F8081B40F8041C02F015BA0000A3
:1008C00031290108B8840020FEE730380A2801D217
:1008D000012070470020704710B504461B4802688D
:1008E00040F2FF110A430260194802681143016097
:1008F000214618480AF00CF804F11C0116480AF0C9
:1009000007F804F1380115480AF002F804F154011F
:10091000134809F0FDFF04F17001124809F0F8FFD7
:1009200004F18C01104809F0F3FF04F1A8010F480D
:1009300009F0EEFF04F1C4010D4809F0E9FF04F1EC
:10094000E001BDE810400B4809F0E2BF303802403A
:1009500050380240000002400004024000080240FB
:10096000000C024000100240001402400018024037
:10097000001C0240002002402DE9F04F02F0030667
:10098000C2F38005C2F3C104C2F3411CC2F3C31811
:1009900000224FF00F094FF0010A4FF0030B11F046
:1009A000010F29D05307DB0E08FA03F709FA03F306
:1009B000082A34BFD0F820E0D0F824E02EEA030360
:1009C0003B4334BF036243620AFA02F3476827EAF3
:1009D00003032B434360530087680BFA03F39F43E1
:1009E00027438760C7689F4347EA0C07C7600768CB
:1009F00027EA030333430360490808BFBDE8F08FCB
:100A00006D00A400B6004FEA8C0C521CC7E7000032
:100A100010B5202080F311880F48006810F4006F93
:100A200002BF002080F3118810BDF1EE100AEFF331
:100A30000980A0F168044FF08070E0610748006809
:100A400084F30988206602F0D3FA002814BF044812
:100A50000448A06110BD000004ED00E03CEF00E0A0
:100A600027C000082BC000082DE9FF4F95B09A461B
:100A7000884606460025EEE1252877D10024274642
:100A8000F94A0121039400E0044316F8013F203B9A
:100A900001FA03F01042F7D130782A2811D06FF014
:100AA0002F033078A0F13002092A16D8039A44F0B7
:100AB000020402EB820203EB42021044761C039014
:100AC000EFE758F8042B0392002A03DA504244F46B
:100AD0000054039044F00204761C30782E2816D17E
:100AE00016F8010F44F004042A280DD06FF02F02ED
:100AF0003078A0F13003092B09D807EB870302EB0C
:100B00004303C718761CF3E758F8047B761C30784B
:100B10006C280FD006DC4C2817D068280DD06A2826
:100B200014D104E0742810D07A280FD10DE044F4D9
:100B300000140AE044F4801401E044F44014727894
:100B4000824202D104F58014761C761C3078662827
:100B50000BD013DC582877D009DC002875D0452845
:100B6000F6D04628F4D047281AD193E118E063283C
:100B700035D0642879D0652812D18BE1702873D0E4
:100B800008DC6728F1D069286FD06E280DD06F2857
:100B900006D1ACE073282CD0752874D0782853D0B7
:100BA0005246179990476D1C54E1C4F30250022835
:100BB00009D003280DD0D8F8001004280DD00D60FE
:100BC00008F1040846E1D8F80010EA17C1E900521C
:100BD000F6E7D8F800100D80F2E70D70F0E718F88E
:100BE000041B8DF8001000208DF80100EB46012059
:100BF00003E058F804BB4FF0FF3061074FF00001ED
:100C000002D40DE009F101018946B9420FDA8145AC
:100C1000F8DB1BF809100029F4D108E009F1010103
:100C200089468142FADB1BF809100029F6D10398A6
:100C30005346A0EB090721463846179A00F080FA80
:100C4000284400EB090507E044E008E10DE01BF84B
:100C5000010B524617999047B9F10109F7D2534653
:100C600021463846179AF2E039E00A21C4F30252CD
:100C70004FF0000B0091022A06D058F8040BC11760
:100C8000032A09D00AE023E008F1070020F0070258
:100C9000F2E80201904605E000B2C117042A01D132
:100CA00040B2C117002906DA0A460021404261EB32
:100CB00002012D2202E0220504D52B228DF804200A
:100CC000012203E0E20701D02022F7E7914657E036
:100CD0000A2100E010214FF0000B00910BE01021E1
:100CE0004FF0000B44F004040827009103E00820B3
:100CF0004FF0000B0090C4F30252022A05D058F8BE
:100D0000040B0021032A08D008E008F1070020F0B6
:100D10000702F2E80201904603E080B2042A00D103
:100D2000C0B24FF0000922072AD53278702A07D0C6
:100D3000DDF800C08CF0100C5CEA0B0C05D00EE066
:100D400040228DF80420012208E050EA010306D079
:100D500030238DF804308DF8052002229146009B47
:100D600083F0080353EA0B030AD150EA010201D1D0
:100D7000620705D530228DF804204FF001097F1E4F
:100D80003278582A04D039A20C920CAA02920BE0B5
:100D90003BA2F9E75B46009AFBF738FD0C9B9B5C96
:100DA000029A521E0292137050EA0102F2D1029886
:100DB00004A9081A00F1200B600702D524F480343E
:100DC00000E001275F4502DDA7EB0B0000E00020FB
:100DD00000EB0B01009003984944401A0390E00394
:100DE00006D453462146179A039800F0A9F9054402
:100DF000002706E001A85246C05D179990476D1C78
:100E00007F1C4F45F6DBE0030CD553462146179A6D
:100E1000039800F095F9054404E0302052461799F4
:100E200090476D1C0099481E00900029F5DC08E0F1
:100E30000298029952460078491C029117999047EE
:100E40006D1CBBF10001ABF1010BF1DC5BE100F0CB
:100E500065F90544761C307800287FF40DAE19B092
:100E60002846BDE8F08F00000928010030313233F8
:100E700034353637383961626364656600000000D6
:100E800030313233343536373839414243444546C0
:100E900000000000600700D4062708F1070020F0DA
:100EA0000700F0E80223804603F0004C5FEA0C00E4
:100EB00001D097A009E0200501D596A005E0E00744
:100EC00001D095A001E0AFF24C001390307823F0F0
:100ED000004365280CD006DC452809D046281DD0E3
:100EE00047287FD13BE0662818D067287AD136E0C2
:100EF0000021112F01DB112000E0781CCDE9000159
:100F000004A90CA8FFF70EFCDDE90D010C9A4FF0C7
:100F1000000B07F10109109200914EE04FF00040E4
:100F20000097CDE9011004A90CA8FFF7FBFBDDE950
:100F30000D020C9B0F994FF0000B914610930092FD
:100F400011B9791C00EB0109B7EB090003D4C0F11A
:100F5000FF3B07F10109A9EB0700019042E0012FD7
:100F600000DA01270021112F01DD112000E03846B1
:100F7000CDE9000104A90CA8FFF7D4FBDDE90D01C0
:100F80000C9A00914FF0000BB946109221070FD434
:100F9000009A4A4503DA914601E0A9F10109B9F145
:100FA000010F05DD109AA9F10101515C3029F4D03F
:100FB000B84202DA10F1040F03DA0121CDE9011081
:100FC00010E0002803DC8344A9EB000102E0411C8F
:100FD000494500DD8946A0EB0B00401C01904FF015
:100FE00000400290200705D40198484502DB4FF0ED
:100FF000FF30019000208DF84B0002980DF14B0757
:10100000B0F1004F25D002200C902B200D900298BB
:1010100000280CDA404202902D200D9007E00A21B2
:101020000298FBF7DDFB3031029007F8011D0C99A7
:10103000481E0C900029F2DC02980028EFD1791E9E
:101040000D980870307800F0200040F0450007F857
:10105000020D11A8C01BC01D02901398007800B1AA
:10106000012000EB0901019801EBE07102980144B5
:101070000398401A401E0390E00306D453462146CD
:10108000179A039800F05CF805441398007818B19B
:101090005246179990476D1CE00323D553462146CD
:1010A000179A039800F04CF805441BE0BBF1000FC1
:1010B00007DB0098584504DD1098179910F80B00CD
:1010C00001E0179930205246904701980BF1010B2F
:1010D000401E05F10105019004D12E2052461799BA
:1010E00090476D1CB9F10001A9F10109DEDC05E0B2
:1010F00017F8010B5246179990476D1C0299481E2C
:1011000002900029F4DC53462146179A03989EE684
:101110002D0000002B000000200000002DE9F04110
:10112000044600251E461746880404D405E03946C7
:101130002020B0476D1C641EF9D52846BDE8F0811B
:101140002DE9F041044600251E469046C80301D50E
:10115000302700E02027880404D505E041463846C2
:10116000B0476D1C641EF9D52846BDE8F08100002B
:101170000348002100604060816000614061704769
:10118000D88400204A68002A06D00A68531C0B60E5
:1011900010704868401E486070470000022281605D
:1011A0000277002242770423C377C0E90F218263CC
:1011B0000262012181778261064A026151694161BF
:1011C000086100F1280150618162091DC16201635B
:1011D00070470000D884002010B50A4C002086B06B
:1011E000A067411ECDE90010CDE9040002900390F4
:1011F000684601F0F1FF684601F0F4FF0298A0672D
:1012000006B010BDD884002070B50446406B20267F
:101210000025072828BF70BDDFE800F04B04144B01
:101220004B444B0094F84A1094F84B0041EA0021DB
:10123000E06B884206D2E268118AB0FBF1F301FB51
:101240001300A0B103206063E16820468A69294643
:101250001570D5605560956017F04EFD86F31188C6
:1012600062890021204612F0010F18D112E0526964
:10127000294620461570D5605560956017F063FDCE
:1012800086F311880021204617F013FC85F311889E
:1012900002201DE042F00102428118F024F885F39B
:1012A000118870BD226C002A1CBF204690476563E0
:1012B00070BD0021204617F07FFF0021204617F067
:1012C00085FF6068026812B105212046904706201C
:1012D000606370BD70B50446406B0025072828BFC9
:1012E00070BDDFE800F02727271A04272700052014
:1012F0006063E16820464A6929461570D5605560EB
:10130000956017F020FD202080F3118800212046F1
:1013100017F0CFFB85F3118870BDE06880698068A5
:10132000002818BF70BD216C00291CBF20468847CB
:10133000656370BD0021204617F03EFF0021204666
:1013400017F044FF6068026812B1052120469047FB
:101350000620606370BD70B50025044600F14402AC
:10136000456317F0B3FE6068816811B12046884775
:1013700040B994F8440010F0600F2FD1204607F0D8
:1013800007FB58B394F84A1094F84B0041EA002048
:10139000E16B814288BFE06394F84400E36B10F096
:1013A000800F4FF020064FF001003FD03BB3606349
:1013B000E168D4F838C020464A6929461570C2F859
:1013C0000CC0C2E9013517F0BEFC86F3118800217C
:1013D000204617F06EFB85F3118870BD0021204672
:1013E00017F0EAFE0021204617F0F0FE6068026860
:1013F00012B10521204690470620606370BD03208E
:101400006063E16820468A6929461570D560556099
:10141000956017F071FC86F31188628900212046DF
:1014200012F0010F1AD085F3118870BDE3B10420CA
:101430006063E168D4F838C020468A69294615708F
:10144000C2F80CC0C2E9013517F056FC86F31188CA
:1014500062890021204612F0010FE4D142F001021E
:10146000428117F040FFDEE705206063E168204617
:101470004A6929461570D5605560956017F063FC80
:1014800086F311880021204617F013FB85F311889D
:1014900070BD022100220160A0F84C2080F84E208F
:1014A00080F84F2002814281114600EB8103491CE4
:1014B000DA600329F9D9426317F012BE0548A0F19A
:1014C0001C01C86108624FF0FF304862002088624A
:1014D00070470000F48400202DE9F04FFA49DFF84E
:1014E000ECB3F7A02DED0A8B83B0896988619BF876
:1014F00000004FF0200200284FF0400108BFF448E0
:1015000006D0F44C2046FFF737FA202280212046EF
:10151000FFF732FA01208BF802009FEDEFCADFEDF2
:10152000EFCADFEDEFBADFF8BC83B7EE00BADFED4C
:10153000EEAAD8F8401042F21070B0FBF1F6002E7F
:1015400008BF0126304601F032FF9BF8010038B198
:1015500000208BF8020003B0BDEC0A8BBDE8F08FD1
:1015600009F076FD002818BFCBED01AADF4CA08959
:1015700000EE100AB8EE400A20EE0C0A20EE2C0A0B
:101580008DED000A8BED030A98F81C0010B3D849C2
:10159000DBF8240001EB8002401C82ED000ACBF84E
:1015A00024000528A4BF0020CBF82400CDED00AA1C
:1015B000002001EB8002DDED000A92ED000A401CE4
:1015C000052830EE200A8DED000AF2DB20EE2B0A12
:1015D0008DED000AD8F80000022818BF05287DD03C
:1015E000092818BF0C2879D098ED031AD8ED020A03
:1015F000B7EE002AF0EE6A1A9DED000A17F0FCFF24
:101600008DED000AF7EE000AB0EE6A0A684618F09F
:1016100093F998F820009DED000A00281CBF3BEECE
:10162000400A8DED000A8BED020AE08900EE100AF7
:10163000B8EE400A20EE0C0A20EE2C0A8DED010ACD
:101640008BED050A98F81C0010B3AA49DBF82800B6
:1016500001EB8002401C82ED000ACBF8280005282F
:10166000A4BF0020CBF82800CDED01AA002001EB9B
:101670008002DDED010A92ED000A401C052830EEE3
:10168000200A8DED010AF2DB20EE2B0A8DED010A16
